{
  "contractName": "MyToken1155",
  "abi": [
    {
      "inputs": [],
      "stateMutability": "nonpayable",
      "type": "constructor"
    },
    {
      "anonymous": false,
      "inputs": [
        {
          "indexed": true,
          "internalType": "address",
          "name": "account",
          "type": "address"
        },
        {
          "indexed": true,
          "internalType": "address",
          "name": "operator",
          "type": "address"
        },
        {
          "indexed": false,
          "internalType": "bool",
          "name": "approved",
          "type": "bool"
        }
      ],
      "name": "ApprovalForAll",
      "type": "event"
    },
    {
      "anonymous": false,
      "inputs": [
        {
          "indexed": false,
          "internalType": "address",
          "name": "account",
          "type": "address"
        }
      ],
      "name": "Paused",
      "type": "event"
    },
    {
      "anonymous": false,
      "inputs": [
        {
          "indexed": true,
          "internalType": "bytes32",
          "name": "role",
          "type": "bytes32"
        },
        {
          "indexed": true,
          "internalType": "bytes32",
          "name": "previousAdminRole",
          "type": "bytes32"
        },
        {
          "indexed": true,
          "internalType": "bytes32",
          "name": "newAdminRole",
          "type": "bytes32"
        }
      ],
      "name": "RoleAdminChanged",
      "type": "event"
    },
    {
      "anonymous": false,
      "inputs": [
        {
          "indexed": true,
          "internalType": "bytes32",
          "name": "role",
          "type": "bytes32"
        },
        {
          "indexed": true,
          "internalType": "address",
          "name": "account",
          "type": "address"
        },
        {
          "indexed": true,
          "internalType": "address",
          "name": "sender",
          "type": "address"
        }
      ],
      "name": "RoleGranted",
      "type": "event"
    },
    {
      "anonymous": false,
      "inputs": [
        {
          "indexed": true,
          "internalType": "bytes32",
          "name": "role",
          "type": "bytes32"
        },
        {
          "indexed": true,
          "internalType": "address",
          "name": "account",
          "type": "address"
        },
        {
          "indexed": true,
          "internalType": "address",
          "name": "sender",
          "type": "address"
        }
      ],
      "name": "RoleRevoked",
      "type": "event"
    },
    {
      "anonymous": false,
      "inputs": [
        {
          "indexed": true,
          "internalType": "address",
          "name": "operator",
          "type": "address"
        },
        {
          "indexed": true,
          "internalType": "address",
          "name": "from",
          "type": "address"
        },
        {
          "indexed": true,
          "internalType": "address",
          "name": "to",
          "type": "address"
        },
        {
          "indexed": false,
          "internalType": "uint256[]",
          "name": "ids",
          "type": "uint256[]"
        },
        {
          "indexed": false,
          "internalType": "uint256[]",
          "name": "values",
          "type": "uint256[]"
        }
      ],
      "name": "TransferBatch",
      "type": "event"
    },
    {
      "anonymous": false,
      "inputs": [
        {
          "indexed": true,
          "internalType": "address",
          "name": "operator",
          "type": "address"
        },
        {
          "indexed": true,
          "internalType": "address",
          "name": "from",
          "type": "address"
        },
        {
          "indexed": true,
          "internalType": "address",
          "name": "to",
          "type": "address"
        },
        {
          "indexed": false,
          "internalType": "uint256",
          "name": "id",
          "type": "uint256"
        },
        {
          "indexed": false,
          "internalType": "uint256",
          "name": "value",
          "type": "uint256"
        }
      ],
      "name": "TransferSingle",
      "type": "event"
    },
    {
      "anonymous": false,
      "inputs": [
        {
          "indexed": false,
          "internalType": "string",
          "name": "value",
          "type": "string"
        },
        {
          "indexed": true,
          "internalType": "uint256",
          "name": "id",
          "type": "uint256"
        }
      ],
      "name": "URI",
      "type": "event"
    },
    {
      "anonymous": false,
      "inputs": [
        {
          "indexed": false,
          "internalType": "address",
          "name": "account",
          "type": "address"
        }
      ],
      "name": "Unpaused",
      "type": "event"
    },
    {
      "inputs": [],
      "name": "DEFAULT_ADMIN_ROLE",
      "outputs": [
        {
          "internalType": "bytes32",
          "name": "",
          "type": "bytes32"
        }
      ],
      "stateMutability": "view",
      "type": "function"
    },
    {
      "inputs": [],
      "name": "MINTER_ROLE",
      "outputs": [
        {
          "internalType": "bytes32",
          "name": "",
          "type": "bytes32"
        }
      ],
      "stateMutability": "view",
      "type": "function"
    },
    {
      "inputs": [],
      "name": "PAUSER_ROLE",
      "outputs": [
        {
          "internalType": "bytes32",
          "name": "",
          "type": "bytes32"
        }
      ],
      "stateMutability": "view",
      "type": "function"
    },
    {
      "inputs": [],
      "name": "URI_SETTER_ROLE",
      "outputs": [
        {
          "internalType": "bytes32",
          "name": "",
          "type": "bytes32"
        }
      ],
      "stateMutability": "view",
      "type": "function"
    },
    {
      "inputs": [
        {
          "internalType": "address",
          "name": "account",
          "type": "address"
        },
        {
          "internalType": "uint256",
          "name": "id",
          "type": "uint256"
        }
      ],
      "name": "balanceOf",
      "outputs": [
        {
          "internalType": "uint256",
          "name": "",
          "type": "uint256"
        }
      ],
      "stateMutability": "view",
      "type": "function"
    },
    {
      "inputs": [
        {
          "internalType": "address[]",
          "name": "accounts",
          "type": "address[]"
        },
        {
          "internalType": "uint256[]",
          "name": "ids",
          "type": "uint256[]"
        }
      ],
      "name": "balanceOfBatch",
      "outputs": [
        {
          "internalType": "uint256[]",
          "name": "",
          "type": "uint256[]"
        }
      ],
      "stateMutability": "view",
      "type": "function"
    },
    {
      "inputs": [
        {
          "internalType": "address",
          "name": "account",
          "type": "address"
        },
        {
          "internalType": "uint256",
          "name": "id",
          "type": "uint256"
        },
        {
          "internalType": "uint256",
          "name": "value",
          "type": "uint256"
        }
      ],
      "name": "burn",
      "outputs": [],
      "stateMutability": "nonpayable",
      "type": "function"
    },
    {
      "inputs": [
        {
          "internalType": "address",
          "name": "account",
          "type": "address"
        },
        {
          "internalType": "uint256[]",
          "name": "ids",
          "type": "uint256[]"
        },
        {
          "internalType": "uint256[]",
          "name": "values",
          "type": "uint256[]"
        }
      ],
      "name": "burnBatch",
      "outputs": [],
      "stateMutability": "nonpayable",
      "type": "function"
    },
    {
      "inputs": [
        {
          "internalType": "bytes32",
          "name": "role",
          "type": "bytes32"
        }
      ],
      "name": "getRoleAdmin",
      "outputs": [
        {
          "internalType": "bytes32",
          "name": "",
          "type": "bytes32"
        }
      ],
      "stateMutability": "view",
      "type": "function"
    },
    {
      "inputs": [
        {
          "internalType": "bytes32",
          "name": "role",
          "type": "bytes32"
        },
        {
          "internalType": "address",
          "name": "account",
          "type": "address"
        }
      ],
      "name": "grantRole",
      "outputs": [],
      "stateMutability": "nonpayable",
      "type": "function"
    },
    {
      "inputs": [
        {
          "internalType": "bytes32",
          "name": "role",
          "type": "bytes32"
        },
        {
          "internalType": "address",
          "name": "account",
          "type": "address"
        }
      ],
      "name": "hasRole",
      "outputs": [
        {
          "internalType": "bool",
          "name": "",
          "type": "bool"
        }
      ],
      "stateMutability": "view",
      "type": "function"
    },
    {
      "inputs": [
        {
          "internalType": "address",
          "name": "account",
          "type": "address"
        },
        {
          "internalType": "address",
          "name": "operator",
          "type": "address"
        }
      ],
      "name": "isApprovedForAll",
      "outputs": [
        {
          "internalType": "bool",
          "name": "",
          "type": "bool"
        }
      ],
      "stateMutability": "view",
      "type": "function"
    },
    {
      "inputs": [],
      "name": "paused",
      "outputs": [
        {
          "internalType": "bool",
          "name": "",
          "type": "bool"
        }
      ],
      "stateMutability": "view",
      "type": "function"
    },
    {
      "inputs": [
        {
          "internalType": "bytes32",
          "name": "role",
          "type": "bytes32"
        },
        {
          "internalType": "address",
          "name": "account",
          "type": "address"
        }
      ],
      "name": "renounceRole",
      "outputs": [],
      "stateMutability": "nonpayable",
      "type": "function"
    },
    {
      "inputs": [
        {
          "internalType": "bytes32",
          "name": "role",
          "type": "bytes32"
        },
        {
          "internalType": "address",
          "name": "account",
          "type": "address"
        }
      ],
      "name": "revokeRole",
      "outputs": [],
      "stateMutability": "nonpayable",
      "type": "function"
    },
    {
      "inputs": [
        {
          "internalType": "address",
          "name": "from",
          "type": "address"
        },
        {
          "internalType": "address",
          "name": "to",
          "type": "address"
        },
        {
          "internalType": "uint256[]",
          "name": "ids",
          "type": "uint256[]"
        },
        {
          "internalType": "uint256[]",
          "name": "amounts",
          "type": "uint256[]"
        },
        {
          "internalType": "bytes",
          "name": "data",
          "type": "bytes"
        }
      ],
      "name": "safeBatchTransferFrom",
      "outputs": [],
      "stateMutability": "nonpayable",
      "type": "function"
    },
    {
      "inputs": [
        {
          "internalType": "address",
          "name": "from",
          "type": "address"
        },
        {
          "internalType": "address",
          "name": "to",
          "type": "address"
        },
        {
          "internalType": "uint256",
          "name": "id",
          "type": "uint256"
        },
        {
          "internalType": "uint256",
          "name": "amount",
          "type": "uint256"
        },
        {
          "internalType": "bytes",
          "name": "data",
          "type": "bytes"
        }
      ],
      "name": "safeTransferFrom",
      "outputs": [],
      "stateMutability": "nonpayable",
      "type": "function"
    },
    {
      "inputs": [
        {
          "internalType": "address",
          "name": "operator",
          "type": "address"
        },
        {
          "internalType": "bool",
          "name": "approved",
          "type": "bool"
        }
      ],
      "name": "setApprovalForAll",
      "outputs": [],
      "stateMutability": "nonpayable",
      "type": "function"
    },
    {
      "inputs": [
        {
          "internalType": "uint256",
          "name": "",
          "type": "uint256"
        }
      ],
      "name": "uri",
      "outputs": [
        {
          "internalType": "string",
          "name": "",
          "type": "string"
        }
      ],
      "stateMutability": "view",
      "type": "function"
    },
    {
      "inputs": [
        {
          "internalType": "string",
          "name": "newuri",
          "type": "string"
        }
      ],
      "name": "setURI",
      "outputs": [],
      "stateMutability": "nonpayable",
      "type": "function"
    },
    {
      "inputs": [],
      "name": "pause",
      "outputs": [],
      "stateMutability": "nonpayable",
      "type": "function"
    },
    {
      "inputs": [],
      "name": "unpause",
      "outputs": [],
      "stateMutability": "nonpayable",
      "type": "function"
    },
    {
      "inputs": [
        {
          "internalType": "address",
          "name": "account",
          "type": "address"
        },
        {
          "internalType": "uint256",
          "name": "id",
          "type": "uint256"
        },
        {
          "internalType": "uint256",
          "name": "amount",
          "type": "uint256"
        },
        {
          "internalType": "bytes",
          "name": "data",
          "type": "bytes"
        }
      ],
      "name": "mint",
      "outputs": [],
      "stateMutability": "nonpayable",
      "type": "function"
    },
    {
      "inputs": [
        {
          "internalType": "address",
          "name": "to",
          "type": "address"
        },
        {
          "internalType": "uint256[]",
          "name": "ids",
          "type": "uint256[]"
        },
        {
          "internalType": "uint256[]",
          "name": "amounts",
          "type": "uint256[]"
        },
        {
          "internalType": "bytes",
          "name": "data",
          "type": "bytes"
        }
      ],
      "name": "mintBatch",
      "outputs": [],
      "stateMutability": "nonpayable",
      "type": "function"
    },
    {
      "inputs": [
        {
          "internalType": "bytes4",
          "name": "interfaceId",
          "type": "bytes4"
        }
      ],
      "name": "supportsInterface",
      "outputs": [
        {
          "internalType": "bool",
          "name": "",
          "type": "bool"
        }
      ],
      "stateMutability": "view",
      "type": "function"
    }
  ],
  "bytecode": "0x60806040523480156200001157600080fd5b506040518060400160405280600381526020017f464a41000000000000000000000000000000000000000000000000000000000081525062000059816200012660201b60201c565b506000600460006101000a81548160ff0219169083151502179055506200008a6000801b336200014260201b60201c565b620000bc7f7804d923f43a17d325d77e781528e0793b2edd9890ab45fc64efd7b4b427744c336200014260201b60201c565b620000ee7f65d7a28e3265b37a6474929f336521b332c1681b933f6cb9f3376673440d862a336200014260201b60201c565b620001207f9f2df0fed2c77648de5860a4cc508cd0818c85b8b8a1ab4ceeef8d981c8956a6336200014260201b60201c565b620003bc565b80600290805190602001906200013e929190620002a7565b5050565b6200015482826200023460201b60201c565b620002305760016003600084815260200190815260200160002060000160008373ffffffffffffffffffffffffffffffffffffffff1673ffffffffffffffffffffffffffffffffffffffff16815260200190815260200160002060006101000a81548160ff021916908315150217905550620001d56200029f60201b60201c565b73ffffffffffffffffffffffffffffffffffffffff168173ffffffffffffffffffffffffffffffffffffffff16837f2f8788117e7eff1d82e926ec794901d17c78024a50270940304540a733656f0d60405160405180910390a45b5050565b60006003600084815260200190815260200160002060000160008373ffffffffffffffffffffffffffffffffffffffff1673ffffffffffffffffffffffffffffffffffffffff16815260200190815260200160002060009054906101000a900460ff16905092915050565b600033905090565b828054620002b59062000357565b90600052602060002090601f016020900481019282620002d9576000855562000325565b82601f10620002f457805160ff191683800117855562000325565b8280016001018555821562000325579182015b828111156200032457825182559160200191906001019062000307565b5b50905062000334919062000338565b5090565b5b808211156200035357600081600090555060010162000339565b5090565b600060028204905060018216806200037057607f821691505b602082108114156200038757620003866200038d565b5b50919050565b7f4e487b7100000000000000000000000000000000000000000000000000000000600052602260045260246000fd5b6147ba80620003cc6000396000f3fe608060405234801561001057600080fd5b50600436106101725760003560e01c80636b20c454116100de578063a22cb46511610097578063e63ab1e911610071578063e63ab1e91461041f578063e985e9c51461043d578063f242432a1461046d578063f5298aca1461048957610172565b8063a22cb465146103c9578063d5391393146103e5578063d547741f1461040357610172565b80636b20c4541461031b578063731133e9146103375780637f345710146103535780638456cb591461037157806391d148541461037b578063a217fddf146103ab57610172565b80632eb2c2d6116101305780632eb2c2d61461026f5780632f2ff15d1461028b57806336568abe146102a75780633f4ba83a146102c35780634e1273f4146102cd5780635c975abb146102fd57610172565b8062fdd58e1461017757806301ffc9a7146101a757806302fe5305146101d75780630e89341c146101f35780631f7fdffa14610223578063248a9ca31461023f575b600080fd5b610191600480360381019061018c9190613232565b6104a5565b60405161019e9190613caa565b60405180910390f35b6101c160048036038101906101bc9190613409565b61056e565b6040516101ce9190613a32565b60405180910390f35b6101f160048036038101906101ec919061345b565b610580565b005b61020d6004803603810190610208919061349c565b6105bf565b60405161021a9190613a68565b60405180910390f35b61023d6004803603810190610238919061314b565b610653565b005b610259600480360381019061025491906133a4565b610698565b6040516102669190613a4d565b60405180910390f35b61028960048036038101906102849190612f7e565b6106b8565b005b6102a560048036038101906102a091906133cd565b610759565b005b6102c160048036038101906102bc91906133cd565b610782565b005b6102cb610805565b005b6102e760048036038101906102e29190613338565b610842565b6040516102f491906139d9565b60405180910390f35b6103056109f3565b6040516103129190613a32565b60405180910390f35b610335600480360381019061033091906130cc565b610a0a565b005b610351600480360381019061034c91906132bd565b610aa7565b005b61035b610aec565b6040516103689190613a4d565b60405180910390f35b610379610b10565b005b610395600480360381019061039091906133cd565b610b4d565b6040516103a29190613a32565b60405180910390f35b6103b3610bb8565b6040516103c09190613a4d565b60405180910390f35b6103e360048036038101906103de91906131f6565b610bbf565b005b6103ed610bd5565b6040516103fa9190613a4d565b60405180910390f35b61041d600480360381019061041891906133cd565b610bf9565b005b610427610c22565b6040516104349190613a4d565b60405180910390f35b61045760048036038101906104529190612f42565b610c46565b6040516104649190613a32565b60405180910390f35b6104876004803603810190610482919061303d565b610cda565b005b6104a3600480360381019061049e919061326e565b610d7b565b005b60008073ffffffffffffffffffffffffffffffffffffffff168373ffffffffffffffffffffffffffffffffffffffff161415610516576040517f08c379a000000000000000000000000000000000000000000000000000000000815260040161050d90613b0a565b60405180910390fd5b60008083815260200190815260200160002060008473ffffffffffffffffffffffffffffffffffffffff1673ffffffffffffffffffffffffffffffffffffffff16815260200190815260200160002054905092915050565b600061057982610e18565b9050919050565b7f7804d923f43a17d325d77e781528e0793b2edd9890ab45fc64efd7b4b427744c6105b2816105ad610e92565b610e9a565b6105bb82610f37565b5050565b6060600280546105ce90613fe3565b80601f01602080910402602001604051908101604052809291908181526020018280546105fa90613fe3565b80156106475780601f1061061c57610100808354040283529160200191610647565b820191906000526020600020905b81548152906001019060200180831161062a57829003601f168201915b50505050509050919050565b7f9f2df0fed2c77648de5860a4cc508cd0818c85b8b8a1ab4ceeef8d981c8956a661068581610680610e92565b610e9a565b61069185858585610f51565b5050505050565b600060036000838152602001908152602001600020600101549050919050565b6106c0610e92565b73ffffffffffffffffffffffffffffffffffffffff168573ffffffffffffffffffffffffffffffffffffffff161480610706575061070585610700610e92565b610c46565b5b610745576040517f08c379a000000000000000000000000000000000000000000000000000000000815260040161073c90613baa565b60405180910390fd5b61075285858585856111bb565b5050505050565b61076282610698565b6107738161076e610e92565b610e9a565b61077d838361151b565b505050565b61078a610e92565b73ffffffffffffffffffffffffffffffffffffffff168173ffffffffffffffffffffffffffffffffffffffff16146107f7576040517f08c379a00000000000000000000000000000000000000000000000000000000081526004016107ee90613c8a565b60405180910390fd5b61080182826115fc565b5050565b7f65d7a28e3265b37a6474929f336521b332c1681b933f6cb9f3376673440d862a61083781610832610e92565b610e9a565b61083f6116de565b50565b60608151835114610888576040517f08c379a000000000000000000000000000000000000000000000000000000000815260040161087f90613c2a565b60405180910390fd5b6000835167ffffffffffffffff8111156108cb577f4e487b7100000000000000000000000000000000000000000000000000000000600052604160045260246000fd5b6040519080825280602002602001820160405280156108f95781602001602082028036833780820191505090505b50905060005b84518110156109e857610992858281518110610944577f4e487b7100000000000000000000000000000000000000000000000000000000600052603260045260246000fd5b6020026020010151858381518110610985577f4e487b7100000000000000000000000000000000000000000000000000000000600052603260045260246000fd5b60200260200101516104a5565b8282815181106109cb577f4e487b7100000000000000000000000000000000000000000000000000000000600052603260045260246000fd5b602002602001018181525050806109e190614046565b90506108ff565b508091505092915050565b6000600460009054906101000a900460ff16905090565b610a12610e92565b73ffffffffffffffffffffffffffffffffffffffff168373ffffffffffffffffffffffffffffffffffffffff161480610a585750610a5783610a52610e92565b610c46565b5b610a97576040517f08c379a0000000000000000000000000000000000000000000000000000000008152600401610a8e90613b4a565b60405180910390fd5b610aa2838383611780565b505050565b7f9f2df0fed2c77648de5860a4cc508cd0818c85b8b8a1ab4ceeef8d981c8956a6610ad981610ad4610e92565b610e9a565b610ae585858585611a7d565b5050505050565b7f7804d923f43a17d325d77e781528e0793b2edd9890ab45fc64efd7b4b427744c81565b7f65d7a28e3265b37a6474929f336521b332c1681b933f6cb9f3376673440d862a610b4281610b3d610e92565b610e9a565b610b4a611c13565b50565b60006003600084815260200190815260200160002060000160008373ffffffffffffffffffffffffffffffffffffffff1673ffffffffffffffffffffffffffffffffffffffff16815260200190815260200160002060009054906101000a900460ff16905092915050565b6000801b81565b610bd1610bca610e92565b8383611cb6565b5050565b7f9f2df0fed2c77648de5860a4cc508cd0818c85b8b8a1ab4ceeef8d981c8956a681565b610c0282610698565b610c1381610c0e610e92565b610e9a565b610c1d83836115fc565b505050565b7f65d7a28e3265b37a6474929f336521b332c1681b933f6cb9f3376673440d862a81565b6000600160008473ffffffffffffffffffffffffffffffffffffffff1673ffffffffffffffffffffffffffffffffffffffff16815260200190815260200160002060008373ffffffffffffffffffffffffffffffffffffffff1673ffffffffffffffffffffffffffffffffffffffff16815260200190815260200160002060009054906101000a900460ff16905092915050565b610ce2610e92565b73ffffffffffffffffffffffffffffffffffffffff168573ffffffffffffffffffffffffffffffffffffffff161480610d285750610d2785610d22610e92565b610c46565b5b610d67576040517f08c379a0000000000000000000000000000000000000000000000000000000008152600401610d5e90613b4a565b60405180910390fd5b610d748585858585611e23565b5050505050565b610d83610e92565b73ffffffffffffffffffffffffffffffffffffffff168373ffffffffffffffffffffffffffffffffffffffff161480610dc95750610dc883610dc3610e92565b610c46565b5b610e08576040517f08c379a0000000000000000000000000000000000000000000000000000000008152600401610dff90613b4a565b60405180910390fd5b610e138383836120a5565b505050565b60007f7965db0b000000000000000000000000000000000000000000000000000000007bffffffffffffffffffffffffffffffffffffffffffffffffffffffff1916827bffffffffffffffffffffffffffffffffffffffffffffffffffffffff19161480610e8b5750610e8a826122c2565b5b9050919050565b600033905090565b610ea48282610b4d565b610f3357610ec98173ffffffffffffffffffffffffffffffffffffffff1660146123a4565b610ed78360001c60206123a4565b604051602001610ee89291906138c2565b6040516020818303038152906040526040517f08c379a0000000000000000000000000000000000000000000000000000000008152600401610f2a9190613a68565b60405180910390fd5b5050565b8060029080519060200190610f4d929190612c25565b5050565b600073ffffffffffffffffffffffffffffffffffffffff168473ffffffffffffffffffffffffffffffffffffffff161415610fc1576040517f08c379a0000000000000000000000000000000000000000000000000000000008152600401610fb890613c6a565b60405180910390fd5b8151835114611005576040517f08c379a0000000000000000000000000000000000000000000000000000000008152600401610ffc90613c4a565b60405180910390fd5b600061100f610e92565b90506110208160008787878761269e565b60005b845181101561112557838181518110611065577f4e487b7100000000000000000000000000000000000000000000000000000000600052603260045260246000fd5b60200260200101516000808784815181106110a9577f4e487b7100000000000000000000000000000000000000000000000000000000600052603260045260246000fd5b6020026020010151815260200190815260200160002060008873ffffffffffffffffffffffffffffffffffffffff1673ffffffffffffffffffffffffffffffffffffffff168152602001908152602001600020600082825461110b9190613e49565b92505081905550808061111d90614046565b915050611023565b508473ffffffffffffffffffffffffffffffffffffffff16600073ffffffffffffffffffffffffffffffffffffffff168273ffffffffffffffffffffffffffffffffffffffff167f4a39dc06d4c0dbc64b70af90fd698a233a518aa5d07e595d983b8c0526c8f7fb878760405161119d9291906139fb565b60405180910390a46111b4816000878787876126fc565b5050505050565b81518351146111ff576040517f08c379a00000000000000000000000000000000000000000000000000000000081526004016111f690613c4a565b60405180910390fd5b600073ffffffffffffffffffffffffffffffffffffffff168473ffffffffffffffffffffffffffffffffffffffff16141561126f576040517f08c379a000000000000000000000000000000000000000000000000000000000815260040161126690613b8a565b60405180910390fd5b6000611279610e92565b905061128981878787878761269e565b60005b84518110156114865760008582815181106112d0577f4e487b7100000000000000000000000000000000000000000000000000000000600052603260045260246000fd5b602002602001015190506000858381518110611315577f4e487b7100000000000000000000000000000000000000000000000000000000600052603260045260246000fd5b60200260200101519050600080600084815260200190815260200160002060008b73ffffffffffffffffffffffffffffffffffffffff1673ffffffffffffffffffffffffffffffffffffffff168152602001908152602001600020549050818110156113b6576040517f08c379a00000000000000000000000000000000000000000000000000000000081526004016113ad90613bea565b60405180910390fd5b81810360008085815260200190815260200160002060008c73ffffffffffffffffffffffffffffffffffffffff1673ffffffffffffffffffffffffffffffffffffffff168152602001908152602001600020819055508160008085815260200190815260200160002060008b73ffffffffffffffffffffffffffffffffffffffff1673ffffffffffffffffffffffffffffffffffffffff168152602001908152602001600020600082825461146b9190613e49565b925050819055505050508061147f90614046565b905061128c565b508473ffffffffffffffffffffffffffffffffffffffff168673ffffffffffffffffffffffffffffffffffffffff168273ffffffffffffffffffffffffffffffffffffffff167f4a39dc06d4c0dbc64b70af90fd698a233a518aa5d07e595d983b8c0526c8f7fb87876040516114fd9291906139fb565b60405180910390a46115138187878787876126fc565b505050505050565b6115258282610b4d565b6115f85760016003600084815260200190815260200160002060000160008373ffffffffffffffffffffffffffffffffffffffff1673ffffffffffffffffffffffffffffffffffffffff16815260200190815260200160002060006101000a81548160ff02191690831515021790555061159d610e92565b73ffffffffffffffffffffffffffffffffffffffff168173ffffffffffffffffffffffffffffffffffffffff16837f2f8788117e7eff1d82e926ec794901d17c78024a50270940304540a733656f0d60405160405180910390a45b5050565b6116068282610b4d565b156116da5760006003600084815260200190815260200160002060000160008373ffffffffffffffffffffffffffffffffffffffff1673ffffffffffffffffffffffffffffffffffffffff16815260200190815260200160002060006101000a81548160ff02191690831515021790555061167f610e92565b73ffffffffffffffffffffffffffffffffffffffff168173ffffffffffffffffffffffffffffffffffffffff16837ff6391f5c32d9c69d2a47ea670b442974b53935d1edc7fd64eb21e047a839171b60405160405180910390a45b5050565b6116e66109f3565b611725576040517f08c379a000000000000000000000000000000000000000000000000000000000815260040161171c90613aea565b60405180910390fd5b6000600460006101000a81548160ff0219169083151502179055507f5db9ee0a495bf2e6ff9c91a7834c1ba4fdd244a5e8aa4e537bd38aeae4b073aa611769610e92565b60405161177691906138fc565b60405180910390a1565b600073ffffffffffffffffffffffffffffffffffffffff168373ffffffffffffffffffffffffffffffffffffffff1614156117f0576040517f08c379a00000000000000000000000000000000000000000000000000000000081526004016117e790613bca565b60405180910390fd5b8051825114611834576040517f08c379a000000000000000000000000000000000000000000000000000000000815260040161182b90613c4a565b60405180910390fd5b600061183e610e92565b905061185e8185600086866040518060200160405280600081525061269e565b60005b83518110156119f75760008482815181106118a5577f4e487b7100000000000000000000000000000000000000000000000000000000600052603260045260246000fd5b6020026020010151905060008483815181106118ea577f4e487b7100000000000000000000000000000000000000000000000000000000600052603260045260246000fd5b60200260200101519050600080600084815260200190815260200160002060008973ffffffffffffffffffffffffffffffffffffffff1673ffffffffffffffffffffffffffffffffffffffff1681526020019081526020016000205490508181101561198b576040517f08c379a000000000000000000000000000000000000000000000000000000000815260040161198290613b2a565b60405180910390fd5b81810360008085815260200190815260200160002060008a73ffffffffffffffffffffffffffffffffffffffff1673ffffffffffffffffffffffffffffffffffffffff1681526020019081526020016000208190555050505080806119ef90614046565b915050611861565b50600073ffffffffffffffffffffffffffffffffffffffff168473ffffffffffffffffffffffffffffffffffffffff168273ffffffffffffffffffffffffffffffffffffffff167f4a39dc06d4c0dbc64b70af90fd698a233a518aa5d07e595d983b8c0526c8f7fb8686604051611a6f9291906139fb565b60405180910390a450505050565b600073ffffffffffffffffffffffffffffffffffffffff168473ffffffffffffffffffffffffffffffffffffffff161415611aed576040517f08c379a0000000000000000000000000000000000000000000000000000000008152600401611ae490613c6a565b60405180910390fd5b6000611af7610e92565b9050611b1881600087611b09886128e3565b611b12886128e3565b8761269e565b8260008086815260200190815260200160002060008773ffffffffffffffffffffffffffffffffffffffff1673ffffffffffffffffffffffffffffffffffffffff1681526020019081526020016000206000828254611b779190613e49565b925050819055508473ffffffffffffffffffffffffffffffffffffffff16600073ffffffffffffffffffffffffffffffffffffffff168273ffffffffffffffffffffffffffffffffffffffff167fc3d58168c5ae7397731d063d5bbf3d657854427343f4c083240f7aacaa2d0f628787604051611bf5929190613cc5565b60405180910390a4611c0c816000878787876129a9565b5050505050565b611c1b6109f3565b15611c5b576040517f08c379a0000000000000000000000000000000000000000000000000000000008152600401611c5290613b6a565b60405180910390fd5b6001600460006101000a81548160ff0219169083151502179055507f62e78cea01bee320cd4e420270b5ea74000d11b0c9f74754ebdbfc544b05a258611c9f610e92565b604051611cac91906138fc565b60405180910390a1565b8173ffffffffffffffffffffffffffffffffffffffff168373ffffffffffffffffffffffffffffffffffffffff161415611d25576040517f08c379a0000000000000000000000000000000000000000000000000000000008152600401611d1c90613c0a565b60405180910390fd5b80600160008573ffffffffffffffffffffffffffffffffffffffff1673ffffffffffffffffffffffffffffffffffffffff16815260200190815260200160002060008473ffffffffffffffffffffffffffffffffffffffff1673ffffffffffffffffffffffffffffffffffffffff16815260200190815260200160002060006101000a81548160ff0219169083151502179055508173ffffffffffffffffffffffffffffffffffffffff168373ffffffffffffffffffffffffffffffffffffffff167f17307eab39ab6107e8899845ad3d59bd9653f200f220920489ca2b5937696c3183604051611e169190613a32565b60405180910390a3505050565b600073ffffffffffffffffffffffffffffffffffffffff168473ffffffffffffffffffffffffffffffffffffffff161415611e93576040517f08c379a0000000000000000000000000000000000000000000000000000000008152600401611e8a90613b8a565b60405180910390fd5b6000611e9d610e92565b9050611ebd818787611eae886128e3565b611eb7886128e3565b8761269e565b600080600086815260200190815260200160002060008873ffffffffffffffffffffffffffffffffffffffff1673ffffffffffffffffffffffffffffffffffffffff16815260200190815260200160002054905083811015611f54576040517f08c379a0000000000000000000000000000000000000000000000000000000008152600401611f4b90613bea565b60405180910390fd5b83810360008087815260200190815260200160002060008973ffffffffffffffffffffffffffffffffffffffff1673ffffffffffffffffffffffffffffffffffffffff168152602001908152602001600020819055508360008087815260200190815260200160002060008873ffffffffffffffffffffffffffffffffffffffff1673ffffffffffffffffffffffffffffffffffffffff16815260200190815260200160002060008282546120099190613e49565b925050819055508573ffffffffffffffffffffffffffffffffffffffff168773ffffffffffffffffffffffffffffffffffffffff168373ffffffffffffffffffffffffffffffffffffffff167fc3d58168c5ae7397731d063d5bbf3d657854427343f4c083240f7aacaa2d0f628888604051612086929190613cc5565b60405180910390a461209c8288888888886129a9565b50505050505050565b600073ffffffffffffffffffffffffffffffffffffffff168373ffffffffffffffffffffffffffffffffffffffff161415612115576040517f08c379a000000000000000000000000000000000000000000000000000000000815260040161210c90613bca565b60405180910390fd5b600061211f610e92565b905061214f81856000612131876128e3565b61213a876128e3565b6040518060200160405280600081525061269e565b600080600085815260200190815260200160002060008673ffffffffffffffffffffffffffffffffffffffff1673ffffffffffffffffffffffffffffffffffffffff168152602001908152602001600020549050828110156121e6576040517f08c379a00000000000000000000000000000000000000000000000000000000081526004016121dd90613b2a565b60405180910390fd5b82810360008086815260200190815260200160002060008773ffffffffffffffffffffffffffffffffffffffff1673ffffffffffffffffffffffffffffffffffffffff16815260200190815260200160002081905550600073ffffffffffffffffffffffffffffffffffffffff168573ffffffffffffffffffffffffffffffffffffffff168373ffffffffffffffffffffffffffffffffffffffff167fc3d58168c5ae7397731d063d5bbf3d657854427343f4c083240f7aacaa2d0f6287876040516122b3929190613cc5565b60405180910390a45050505050565b60007fd9b67a26000000000000000000000000000000000000000000000000000000007bffffffffffffffffffffffffffffffffffffffffffffffffffffffff1916827bffffffffffffffffffffffffffffffffffffffffffffffffffffffff1916148061238d57507f0e89341c000000000000000000000000000000000000000000000000000000007bffffffffffffffffffffffffffffffffffffffffffffffffffffffff1916827bffffffffffffffffffffffffffffffffffffffffffffffffffffffff1916145b8061239d575061239c82612b90565b5b9050919050565b6060600060028360026123b79190613e9f565b6123c19190613e49565b67ffffffffffffffff811115612400577f4e487b7100000000000000000000000000000000000000000000000000000000600052604160045260246000fd5b6040519080825280601f01601f1916602001820160405280156124325781602001600182028036833780820191505090505b5090507f300000000000000000000000000000000000000000000000000000000000000081600081518110612490577f4e487b7100000000000000000000000000000000000000000000000000000000600052603260045260246000fd5b60200101907effffffffffffffffffffffffffffffffffffffffffffffffffffffffffffff1916908160001a9053507f78000000000000000000000000000000000000000000000000000000000000008160018151811061251a577f4e487b7100000000000000000000000000000000000000000000000000000000600052603260045260246000fd5b60200101907effffffffffffffffffffffffffffffffffffffffffffffffffffffffffffff1916908160001a9053506000600184600261255a9190613e9f565b6125649190613e49565b90505b6001811115612650577f3031323334353637383961626364656600000000000000000000000000000000600f8616601081106125cc577f4e487b7100000000000000000000000000000000000000000000000000000000600052603260045260246000fd5b1a60f81b828281518110612609577f4e487b7100000000000000000000000000000000000000000000000000000000600052603260045260246000fd5b60200101907effffffffffffffffffffffffffffffffffffffffffffffffffffffffffffff1916908160001a905350600485901c94508061264990613fb9565b9050612567565b5060008414612694576040517f08c379a000000000000000000000000000000000000000000000000000000000815260040161268b90613aaa565b60405180910390fd5b8091505092915050565b6126a66109f3565b156126e6576040517f08c379a00000000000000000000000000000000000000000000000000000000081526004016126dd90613b6a565b60405180910390fd5b6126f4868686868686612bfa565b505050505050565b61271b8473ffffffffffffffffffffffffffffffffffffffff16612c02565b156128db578373ffffffffffffffffffffffffffffffffffffffff1663bc197c8187878686866040518663ffffffff1660e01b8152600401612761959493929190613917565b602060405180830381600087803b15801561277b57600080fd5b505af19250505080156127ac57506040513d601f19601f820116820180604052508101906127a99190613432565b60015b612852576127b861411c565b806308c379a0141561281557506127cd61467b565b806127d85750612817565b806040517f08c379a000000000000000000000000000000000000000000000000000000000815260040161280c9190613a68565b60405180910390fd5b505b6040517f08c379a000000000000000000000000000000000000000000000000000000000815260040161284990613a8a565b60405180910390fd5b63bc197c8160e01b7bffffffffffffffffffffffffffffffffffffffffffffffffffffffff1916817bffffffffffffffffffffffffffffffffffffffffffffffffffffffff1916146128d9576040517f08c379a00000000000000000000000000000000000000000000000000000000081526004016128d090613aca565b60405180910390fd5b505b505050505050565b60606000600167ffffffffffffffff811115612928577f4e487b7100000000000000000000000000000000000000000000000000000000600052604160045260246000fd5b6040519080825280602002602001820160405280156129565781602001602082028036833780820191505090505b5090508281600081518110612994577f4e487b7100000000000000000000000000000000000000000000000000000000600052603260045260246000fd5b60200260200101818152505080915050919050565b6129c88473ffffffffffffffffffffffffffffffffffffffff16612c02565b15612b88578373ffffffffffffffffffffffffffffffffffffffff1663f23a6e6187878686866040518663ffffffff1660e01b8152600401612a0e95949392919061397f565b602060405180830381600087803b158015612a2857600080fd5b505af1925050508015612a5957506040513d601f19601f82011682018060405250810190612a569190613432565b60015b612aff57612a6561411c565b806308c379a01415612ac25750612a7a61467b565b80612a855750612ac4565b806040517f08c379a0000000000000000000000000000000000000000000000000000000008152600401612ab99190613a68565b60405180910390fd5b505b6040517f08c379a0000000000000000000000000000000000000000000000000000000008152600401612af690613a8a565b60405180910390fd5b63f23a6e6160e01b7bffffffffffffffffffffffffffffffffffffffffffffffffffffffff1916817bffffffffffffffffffffffffffffffffffffffffffffffffffffffff191614612b86576040517f08c379a0000000000000000000000000000000000000000000000000000000008152600401612b7d90613aca565b60405180910390fd5b505b505050505050565b60007f01ffc9a7000000000000000000000000000000000000000000000000000000007bffffffffffffffffffffffffffffffffffffffffffffffffffffffff1916827bffffffffffffffffffffffffffffffffffffffffffffffffffffffff1916149050919050565b505050505050565b6000808273ffffffffffffffffffffffffffffffffffffffff163b119050919050565b828054612c3190613fe3565b90600052602060002090601f016020900481019282612c535760008555612c9a565b82601f10612c6c57805160ff1916838001178555612c9a565b82800160010185558215612c9a579182015b82811115612c99578251825591602001919060010190612c7e565b5b509050612ca79190612cab565b5090565b5b80821115612cc4576000816000905550600101612cac565b5090565b6000612cdb612cd684613d13565b613cee565b90508083825260208201905082856020860282011115612cfa57600080fd5b60005b85811015612d2a5781612d108882612e1c565b845260208401935060208301925050600181019050612cfd565b5050509392505050565b6000612d47612d4284613d3f565b613cee565b90508083825260208201905082856020860282011115612d6657600080fd5b60005b85811015612d965781612d7c8882612f2d565b845260208401935060208301925050600181019050612d69565b5050509392505050565b6000612db3612dae84613d6b565b613cee565b905082815260208101848484011115612dcb57600080fd5b612dd6848285613f77565b509392505050565b6000612df1612dec84613d9c565b613cee565b905082815260208101848484011115612e0957600080fd5b612e14848285613f77565b509392505050565b600081359050612e2b81614711565b92915050565b600082601f830112612e4257600080fd5b8135612e52848260208601612cc8565b91505092915050565b600082601f830112612e6c57600080fd5b8135612e7c848260208601612d34565b91505092915050565b600081359050612e9481614728565b92915050565b600081359050612ea98161473f565b92915050565b600081359050612ebe81614756565b92915050565b600081519050612ed381614756565b92915050565b600082601f830112612eea57600080fd5b8135612efa848260208601612da0565b91505092915050565b600082601f830112612f1457600080fd5b8135612f24848260208601612dde565b91505092915050565b600081359050612f3c8161476d565b92915050565b60008060408385031215612f5557600080fd5b6000612f6385828601612e1c565b9250506020612f7485828601612e1c565b9150509250929050565b600080600080600060a08688031215612f9657600080fd5b6000612fa488828901612e1c565b9550506020612fb588828901612e1c565b945050604086013567ffffffffffffffff811115612fd257600080fd5b612fde88828901612e5b565b935050606086013567ffffffffffffffff811115612ffb57600080fd5b61300788828901612e5b565b925050608086013567ffffffffffffffff81111561302457600080fd5b61303088828901612ed9565b9150509295509295909350565b600080600080600060a0868803121561305557600080fd5b600061306388828901612e1c565b955050602061307488828901612e1c565b945050604061308588828901612f2d565b935050606061309688828901612f2d565b925050608086013567ffffffffffffffff8111156130b357600080fd5b6130bf88828901612ed9565b9150509295509295909350565b6000806000606084860312156130e157600080fd5b60006130ef86828701612e1c565b935050602084013567ffffffffffffffff81111561310c57600080fd5b61311886828701612e5b565b925050604084013567ffffffffffffffff81111561313557600080fd5b61314186828701612e5b565b9150509250925092565b6000806000806080858703121561316157600080fd5b600061316f87828801612e1c565b945050602085013567ffffffffffffffff81111561318c57600080fd5b61319887828801612e5b565b935050604085013567ffffffffffffffff8111156131b557600080fd5b6131c187828801612e5b565b925050606085013567ffffffffffffffff8111156131de57600080fd5b6131ea87828801612ed9565b91505092959194509250565b6000806040838503121561320957600080fd5b600061321785828601612e1c565b925050602061322885828601612e85565b9150509250929050565b6000806040838503121561324557600080fd5b600061325385828601612e1c565b925050602061326485828601612f2d565b9150509250929050565b60008060006060848603121561328357600080fd5b600061329186828701612e1c565b93505060206132a286828701612f2d565b92505060406132b386828701612f2d565b9150509250925092565b600080600080608085870312156132d357600080fd5b60006132e187828801612e1c565b94505060206132f287828801612f2d565b935050604061330387828801612f2d565b925050606085013567ffffffffffffffff81111561332057600080fd5b61332c87828801612ed9565b91505092959194509250565b6000806040838503121561334b57600080fd5b600083013567ffffffffffffffff81111561336557600080fd5b61337185828601612e31565b925050602083013567ffffffffffffffff81111561338e57600080fd5b61339a85828601612e5b565b9150509250929050565b6000602082840312156133b657600080fd5b60006133c484828501612e9a565b91505092915050565b600080604083850312156133e057600080fd5b60006133ee85828601612e9a565b92505060206133ff85828601612e1c565b9150509250929050565b60006020828403121561341b57600080fd5b600061342984828501612eaf565b91505092915050565b60006020828403121561344457600080fd5b600061345284828501612ec4565b91505092915050565b60006020828403121561346d57600080fd5b600082013567ffffffffffffffff81111561348757600080fd5b61349384828501612f03565b91505092915050565b6000602082840312156134ae57600080fd5b60006134bc84828501612f2d565b91505092915050565b60006134d183836138a4565b60208301905092915050565b6134e681613ef9565b82525050565b60006134f782613ddd565b6135018185613e0b565b935061350c83613dcd565b8060005b8381101561353d57815161352488826134c5565b975061352f83613dfe565b925050600181019050613510565b5085935050505092915050565b61355381613f0b565b82525050565b61356281613f17565b82525050565b600061357382613de8565b61357d8185613e1c565b935061358d818560208601613f86565b6135968161413e565b840191505092915050565b60006135ac82613df3565b6135b68185613e2d565b93506135c6818560208601613f86565b6135cf8161413e565b840191505092915050565b60006135e582613df3565b6135ef8185613e3e565b93506135ff818560208601613f86565b80840191505092915050565b6000613618603483613e2d565b91506136238261415c565b604082019050919050565b600061363b602083613e2d565b9150613646826141ab565b602082019050919050565b600061365e602883613e2d565b9150613669826141d4565b604082019050919050565b6000613681601483613e2d565b915061368c82614223565b602082019050919050565b60006136a4602b83613e2d565b91506136af8261424c565b604082019050919050565b60006136c7602483613e2d565b91506136d28261429b565b604082019050919050565b60006136ea602983613e2d565b91506136f5826142ea565b604082019050919050565b600061370d601083613e2d565b915061371882614339565b602082019050919050565b6000613730602583613e2d565b915061373b82614362565b604082019050919050565b6000613753603283613e2d565b915061375e826143b1565b604082019050919050565b6000613776602383613e2d565b915061378182614400565b604082019050919050565b6000613799602a83613e2d565b91506137a48261444f565b604082019050919050565b60006137bc601783613e3e565b91506137c78261449e565b601782019050919050565b60006137df602983613e2d565b91506137ea826144c7565b604082019050919050565b6000613802602983613e2d565b915061380d82614516565b604082019050919050565b6000613825602883613e2d565b915061383082614565565b604082019050919050565b6000613848602183613e2d565b9150613853826145b4565b604082019050919050565b600061386b601183613e3e565b915061387682614603565b601182019050919050565b600061388e602f83613e2d565b91506138998261462c565b604082019050919050565b6138ad81613f6d565b82525050565b6138bc81613f6d565b82525050565b60006138cd826137af565b91506138d982856135da565b91506138e48261385e565b91506138f082846135da565b91508190509392505050565b600060208201905061391160008301846134dd565b92915050565b600060a08201905061392c60008301886134dd565b61393960208301876134dd565b818103604083015261394b81866134ec565b9050818103606083015261395f81856134ec565b905081810360808301526139738184613568565b90509695505050505050565b600060a08201905061399460008301886134dd565b6139a160208301876134dd565b6139ae60408301866138b3565b6139bb60608301856138b3565b81810360808301526139cd8184613568565b90509695505050505050565b600060208201905081810360008301526139f381846134ec565b905092915050565b60006040820190508181036000830152613a1581856134ec565b90508181036020830152613a2981846134ec565b90509392505050565b6000602082019050613a47600083018461354a565b92915050565b6000602082019050613a626000830184613559565b92915050565b60006020820190508181036000830152613a8281846135a1565b905092915050565b60006020820190508181036000830152613aa38161360b565b9050919050565b60006020820190508181036000830152613ac38161362e565b9050919050565b60006020820190508181036000830152613ae381613651565b9050919050565b60006020820190508181036000830152613b0381613674565b9050919050565b60006020820190508181036000830152613b2381613697565b9050919050565b60006020820190508181036000830152613b43816136ba565b9050919050565b60006020820190508181036000830152613b63816136dd565b9050919050565b60006020820190508181036000830152613b8381613700565b9050919050565b60006020820190508181036000830152613ba381613723565b9050919050565b60006020820190508181036000830152613bc381613746565b9050919050565b60006020820190508181036000830152613be381613769565b9050919050565b60006020820190508181036000830152613c038161378c565b9050919050565b60006020820190508181036000830152613c23816137d2565b9050919050565b60006020820190508181036000830152613c43816137f5565b9050919050565b60006020820190508181036000830152613c6381613818565b9050919050565b60006020820190508181036000830152613c838161383b565b9050919050565b60006020820190508181036000830152613ca381613881565b9050919050565b6000602082019050613cbf60008301846138b3565b92915050565b6000604082019050613cda60008301856138b3565b613ce760208301846138b3565b9392505050565b6000613cf8613d09565b9050613d048282614015565b919050565b6000604051905090565b600067ffffffffffffffff821115613d2e57613d2d6140ed565b5b602082029050602081019050919050565b600067ffffffffffffffff821115613d5a57613d596140ed565b5b602082029050602081019050919050565b600067ffffffffffffffff821115613d8657613d856140ed565b5b613d8f8261413e565b9050602081019050919050565b600067ffffffffffffffff821115613db757613db66140ed565b5b613dc08261413e565b9050602081019050919050565b6000819050602082019050919050565b600081519050919050565b600081519050919050565b600081519050919050565b6000602082019050919050565b600082825260208201905092915050565b600082825260208201905092915050565b600082825260208201905092915050565b600081905092915050565b6000613e5482613f6d565b9150613e5f83613f6d565b9250827fffffffffffffffffffffffffffffffffffffffffffffffffffffffffffffffff03821115613e9457613e9361408f565b5b828201905092915050565b6000613eaa82613f6d565b9150613eb583613f6d565b9250817fffffffffffffffffffffffffffffffffffffffffffffffffffffffffffffffff0483118215151615613eee57613eed61408f565b5b828202905092915050565b6000613f0482613f4d565b9050919050565b60008115159050919050565b6000819050919050565b60007fffffffff0000000000000000000000000000000000000000000000000000000082169050919050565b600073ffffffffffffffffffffffffffffffffffffffff82169050919050565b6000819050919050565b82818337600083830152505050565b60005b83811015613fa4578082015181840152602081019050613f89565b83811115613fb3576000848401525b50505050565b6000613fc482613f6d565b91506000821415613fd857613fd761408f565b5b600182039050919050565b60006002820490506001821680613ffb57607f821691505b6020821081141561400f5761400e6140be565b5b50919050565b61401e8261413e565b810181811067ffffffffffffffff8211171561403d5761403c6140ed565b5b80604052505050565b600061405182613f6d565b91507fffffffffffffffffffffffffffffffffffffffffffffffffffffffffffffffff8214156140845761408361408f565b5b600182019050919050565b7f4e487b7100000000000000000000000000000000000000000000000000000000600052601160045260246000fd5b7f4e487b7100000000000000000000000000000000000000000000000000000000600052602260045260246000fd5b7f4e487b7100000000000000000000000000000000000000000000000000000000600052604160045260246000fd5b600060033d111561413b5760046000803e61413860005161414f565b90505b90565b6000601f19601f8301169050919050565b60008160e01c9050919050565b7f455243313135353a207472616e7366657220746f206e6f6e204552433131353560008201527f526563656976657220696d706c656d656e746572000000000000000000000000602082015250565b7f537472696e67733a20686578206c656e67746820696e73756666696369656e74600082015250565b7f455243313135353a204552433131353552656365697665722072656a6563746560008201527f6420746f6b656e73000000000000000000000000000000000000000000000000602082015250565b7f5061757361626c653a206e6f7420706175736564000000000000000000000000600082015250565b7f455243313135353a2062616c616e636520717565727920666f7220746865207a60008201527f65726f2061646472657373000000000000000000000000000000000000000000602082015250565b7f455243313135353a206275726e20616d6f756e7420657863656564732062616c60008201527f616e636500000000000000000000000000000000000000000000000000000000602082015250565b7f455243313135353a2063616c6c6572206973206e6f74206f776e6572206e6f7260008201527f20617070726f7665640000000000000000000000000000000000000000000000602082015250565b7f5061757361626c653a2070617573656400000000000000000000000000000000600082015250565b7f455243313135353a207472616e7366657220746f20746865207a65726f20616460008201527f6472657373000000000000000000000000000000000000000000000000000000602082015250565b7f455243313135353a207472616e736665722063616c6c6572206973206e6f742060008201527f6f776e6572206e6f7220617070726f7665640000000000000000000000000000602082015250565b7f455243313135353a206275726e2066726f6d20746865207a65726f206164647260008201527f6573730000000000000000000000000000000000000000000000000000000000602082015250565b7f455243313135353a20696e73756666696369656e742062616c616e636520666f60008201527f72207472616e7366657200000000000000000000000000000000000000000000602082015250565b7f416363657373436f6e74726f6c3a206163636f756e7420000000000000000000600082015250565b7f455243313135353a2073657474696e6720617070726f76616c2073746174757360008201527f20666f722073656c660000000000000000000000000000000000000000000000602082015250565b7f455243313135353a206163636f756e747320616e6420696473206c656e67746860008201527f206d69736d617463680000000000000000000000000000000000000000000000602082015250565b7f455243313135353a2069647320616e6420616d6f756e7473206c656e6774682060008201527f6d69736d61746368000000000000000000000000000000000000000000000000602082015250565b7f455243313135353a206d696e7420746f20746865207a65726f2061646472657360008201527f7300000000000000000000000000000000000000000000000000000000000000602082015250565b7f206973206d697373696e6720726f6c6520000000000000000000000000000000600082015250565b7f416363657373436f6e74726f6c3a2063616e206f6e6c792072656e6f756e636560008201527f20726f6c657320666f722073656c660000000000000000000000000000000000602082015250565b600060443d101561468b5761470e565b614693613d09565b60043d036004823e80513d602482011167ffffffffffffffff821117156146bb57505061470e565b808201805167ffffffffffffffff8111156146d9575050505061470e565b80602083010160043d0385018111156146f657505050505061470e565b61470582602001850186614015565b82955050505050505b90565b61471a81613ef9565b811461472557600080fd5b50565b61473181613f0b565b811461473c57600080fd5b50565b61474881613f17565b811461475357600080fd5b50565b61475f81613f21565b811461476a57600080fd5b50565b61477681613f6d565b811461478157600080fd5b5056fea26469706673582212207c32aa85cddbab46b20ea70c0969bb20286265c7b06716dfcb5411e25637489764736f6c63430008010033",
  "immutableReferences": {},
  "source": "// SPDX-License-Identifier: MIT\npragma solidity ^0.8.1;\n\nimport \"@openzeppelin/contracts/token/ERC1155/ERC1155.sol\";\nimport \"@openzeppelin/contracts/access/AccessControl.sol\";\nimport \"@openzeppelin/contracts/security/Pausable.sol\";\nimport \"@openzeppelin/contracts/token/ERC1155/extensions/ERC1155Burnable.sol\";\n\ncontract MyToken1155 is ERC1155, AccessControl, Pausable, ERC1155Burnable {\n    bytes32 public constant URI_SETTER_ROLE = keccak256(\"URI_SETTER_ROLE\");\n    bytes32 public constant PAUSER_ROLE = keccak256(\"PAUSER_ROLE\");\n    bytes32 public constant MINTER_ROLE = keccak256(\"MINTER_ROLE\");\n\n    constructor() ERC1155(\"FJA\") {\n        _grantRole(DEFAULT_ADMIN_ROLE, msg.sender);\n        _grantRole(URI_SETTER_ROLE, msg.sender);\n        _grantRole(PAUSER_ROLE, msg.sender);\n        _grantRole(MINTER_ROLE, msg.sender);\n    }\n\n    function setURI(string memory newuri) public onlyRole(URI_SETTER_ROLE) {\n        _setURI(newuri);\n    }\n\n    function pause() public onlyRole(PAUSER_ROLE) {\n        _pause();\n    }\n\n    function unpause() public onlyRole(PAUSER_ROLE) {\n        _unpause();\n    }\n\n    function mint(address account, uint256 id, uint256 amount, bytes memory data)\n        public\n        onlyRole(MINTER_ROLE)\n    {\n        _mint(account, id, amount, data);\n    }\n\n    function mintBatch(address to, uint256[] memory ids, uint256[] memory amounts, bytes memory data)\n        public\n        onlyRole(MINTER_ROLE)\n    {\n        _mintBatch(to, ids, amounts, data);\n    }\n\n    function _beforeTokenTransfer(address operator, address from, address to, uint256[] memory ids, uint256[] memory amounts, bytes memory data)\n        internal\n        whenNotPaused\n        override\n    {\n        super._beforeTokenTransfer(operator, from, to, ids, amounts, data);\n    }\n\n    // The following functions are overrides required by Solidity.\n\n    function supportsInterface(bytes4 interfaceId)\n        public\n        view\n        override(ERC1155, AccessControl)\n        returns (bool)\n    {\n        return super.supportsInterface(interfaceId);\n    }\n}",
  "sourcePath": "/home/alvaradof/cursoSolidity/NFT/contracts/Token1155.sol",
  "compiler": {
    "name": "solc",
    "version": "0.8.1+commit.df193b15.Emscripten.clang"
  },
  "schemaVersion": "3.4.4",
  "updatedAt": "2022-02-27T02:42:53.152Z",
  "devdoc": {
    "kind": "dev",
    "methods": {
      "balanceOf(address,uint256)": {
        "details": "See {IERC1155-balanceOf}. Requirements: - `account` cannot be the zero address."
      },
      "balanceOfBatch(address[],uint256[])": {
        "details": "See {IERC1155-balanceOfBatch}. Requirements: - `accounts` and `ids` must have the same length."
      },
      "getRoleAdmin(bytes32)": {
        "details": "Returns the admin role that controls `role`. See {grantRole} and {revokeRole}. To change a role's admin, use {_setRoleAdmin}."
      },
      "grantRole(bytes32,address)": {
        "details": "Grants `role` to `account`. If `account` had not been already granted `role`, emits a {RoleGranted} event. Requirements: - the caller must have ``role``'s admin role."
      },
      "hasRole(bytes32,address)": {
        "details": "Returns `true` if `account` has been granted `role`."
      },
      "isApprovedForAll(address,address)": {
        "details": "See {IERC1155-isApprovedForAll}."
      },
      "paused()": {
        "details": "Returns true if the contract is paused, and false otherwise."
      },
      "renounceRole(bytes32,address)": {
        "details": "Revokes `role` from the calling account. Roles are often managed via {grantRole} and {revokeRole}: this function's purpose is to provide a mechanism for accounts to lose their privileges if they are compromised (such as when a trusted device is misplaced). If the calling account had been revoked `role`, emits a {RoleRevoked} event. Requirements: - the caller must be `account`."
      },
      "revokeRole(bytes32,address)": {
        "details": "Revokes `role` from `account`. If `account` had been granted `role`, emits a {RoleRevoked} event. Requirements: - the caller must have ``role``'s admin role."
      },
      "safeBatchTransferFrom(address,address,uint256[],uint256[],bytes)": {
        "details": "See {IERC1155-safeBatchTransferFrom}."
      },
      "safeTransferFrom(address,address,uint256,uint256,bytes)": {
        "details": "See {IERC1155-safeTransferFrom}."
      },
      "setApprovalForAll(address,bool)": {
        "details": "See {IERC1155-setApprovalForAll}."
      },
      "uri(uint256)": {
        "details": "See {IERC1155MetadataURI-uri}. This implementation returns the same URI for *all* token types. It relies on the token type ID substitution mechanism https://eips.ethereum.org/EIPS/eip-1155#metadata[defined in the EIP]. Clients calling this function must replace the `\\{id\\}` substring with the actual token type ID."
      }
    },
    "version": 1
  },
  "userdoc": {
    "kind": "user",
    "methods": {},
    "version": 1
  }
}