{
  "contractName": "Token721",
  "abi": [
    {
      "inputs": [],
      "stateMutability": "nonpayable",
      "type": "constructor"
    },
    {
      "anonymous": false,
      "inputs": [
        {
          "indexed": true,
          "internalType": "address",
          "name": "owner",
          "type": "address"
        },
        {
          "indexed": true,
          "internalType": "address",
          "name": "approved",
          "type": "address"
        },
        {
          "indexed": true,
          "internalType": "uint256",
          "name": "tokenId",
          "type": "uint256"
        }
      ],
      "name": "Approval",
      "type": "event"
    },
    {
      "anonymous": false,
      "inputs": [
        {
          "indexed": true,
          "internalType": "address",
          "name": "owner",
          "type": "address"
        },
        {
          "indexed": true,
          "internalType": "address",
          "name": "operator",
          "type": "address"
        },
        {
          "indexed": false,
          "internalType": "bool",
          "name": "approved",
          "type": "bool"
        }
      ],
      "name": "ApprovalForAll",
      "type": "event"
    },
    {
      "anonymous": false,
      "inputs": [
        {
          "indexed": false,
          "internalType": "address",
          "name": "account",
          "type": "address"
        }
      ],
      "name": "Paused",
      "type": "event"
    },
    {
      "anonymous": false,
      "inputs": [
        {
          "indexed": true,
          "internalType": "bytes32",
          "name": "role",
          "type": "bytes32"
        },
        {
          "indexed": true,
          "internalType": "bytes32",
          "name": "previousAdminRole",
          "type": "bytes32"
        },
        {
          "indexed": true,
          "internalType": "bytes32",
          "name": "newAdminRole",
          "type": "bytes32"
        }
      ],
      "name": "RoleAdminChanged",
      "type": "event"
    },
    {
      "anonymous": false,
      "inputs": [
        {
          "indexed": true,
          "internalType": "bytes32",
          "name": "role",
          "type": "bytes32"
        },
        {
          "indexed": true,
          "internalType": "address",
          "name": "account",
          "type": "address"
        },
        {
          "indexed": true,
          "internalType": "address",
          "name": "sender",
          "type": "address"
        }
      ],
      "name": "RoleGranted",
      "type": "event"
    },
    {
      "anonymous": false,
      "inputs": [
        {
          "indexed": true,
          "internalType": "bytes32",
          "name": "role",
          "type": "bytes32"
        },
        {
          "indexed": true,
          "internalType": "address",
          "name": "account",
          "type": "address"
        },
        {
          "indexed": true,
          "internalType": "address",
          "name": "sender",
          "type": "address"
        }
      ],
      "name": "RoleRevoked",
      "type": "event"
    },
    {
      "anonymous": false,
      "inputs": [
        {
          "indexed": true,
          "internalType": "address",
          "name": "from",
          "type": "address"
        },
        {
          "indexed": true,
          "internalType": "address",
          "name": "to",
          "type": "address"
        },
        {
          "indexed": true,
          "internalType": "uint256",
          "name": "tokenId",
          "type": "uint256"
        }
      ],
      "name": "Transfer",
      "type": "event"
    },
    {
      "anonymous": false,
      "inputs": [
        {
          "indexed": false,
          "internalType": "address",
          "name": "account",
          "type": "address"
        }
      ],
      "name": "Unpaused",
      "type": "event"
    },
    {
      "inputs": [],
      "name": "DEFAULT_ADMIN_ROLE",
      "outputs": [
        {
          "internalType": "bytes32",
          "name": "",
          "type": "bytes32"
        }
      ],
      "stateMutability": "view",
      "type": "function",
      "constant": true
    },
    {
      "inputs": [],
      "name": "MINTER_ROLE",
      "outputs": [
        {
          "internalType": "bytes32",
          "name": "",
          "type": "bytes32"
        }
      ],
      "stateMutability": "view",
      "type": "function",
      "constant": true
    },
    {
      "inputs": [],
      "name": "PAUSER_ROLE",
      "outputs": [
        {
          "internalType": "bytes32",
          "name": "",
          "type": "bytes32"
        }
      ],
      "stateMutability": "view",
      "type": "function",
      "constant": true
    },
    {
      "inputs": [
        {
          "internalType": "address",
          "name": "to",
          "type": "address"
        },
        {
          "internalType": "uint256",
          "name": "tokenId",
          "type": "uint256"
        }
      ],
      "name": "approve",
      "outputs": [],
      "stateMutability": "nonpayable",
      "type": "function"
    },
    {
      "inputs": [
        {
          "internalType": "address",
          "name": "owner",
          "type": "address"
        }
      ],
      "name": "balanceOf",
      "outputs": [
        {
          "internalType": "uint256",
          "name": "",
          "type": "uint256"
        }
      ],
      "stateMutability": "view",
      "type": "function",
      "constant": true
    },
    {
      "inputs": [],
      "name": "baseURI",
      "outputs": [
        {
          "internalType": "string",
          "name": "",
          "type": "string"
        }
      ],
      "stateMutability": "view",
      "type": "function",
      "constant": true
    },
    {
      "inputs": [
        {
          "internalType": "uint256",
          "name": "tokenId",
          "type": "uint256"
        }
      ],
      "name": "burn",
      "outputs": [],
      "stateMutability": "nonpayable",
      "type": "function"
    },
    {
      "inputs": [
        {
          "internalType": "uint256",
          "name": "tokenId",
          "type": "uint256"
        }
      ],
      "name": "getApproved",
      "outputs": [
        {
          "internalType": "address",
          "name": "",
          "type": "address"
        }
      ],
      "stateMutability": "view",
      "type": "function",
      "constant": true
    },
    {
      "inputs": [
        {
          "internalType": "bytes32",
          "name": "role",
          "type": "bytes32"
        }
      ],
      "name": "getRoleAdmin",
      "outputs": [
        {
          "internalType": "bytes32",
          "name": "",
          "type": "bytes32"
        }
      ],
      "stateMutability": "view",
      "type": "function",
      "constant": true
    },
    {
      "inputs": [
        {
          "internalType": "bytes32",
          "name": "role",
          "type": "bytes32"
        },
        {
          "internalType": "address",
          "name": "account",
          "type": "address"
        }
      ],
      "name": "grantRole",
      "outputs": [],
      "stateMutability": "nonpayable",
      "type": "function"
    },
    {
      "inputs": [
        {
          "internalType": "bytes32",
          "name": "role",
          "type": "bytes32"
        },
        {
          "internalType": "address",
          "name": "account",
          "type": "address"
        }
      ],
      "name": "hasRole",
      "outputs": [
        {
          "internalType": "bool",
          "name": "",
          "type": "bool"
        }
      ],
      "stateMutability": "view",
      "type": "function",
      "constant": true
    },
    {
      "inputs": [
        {
          "internalType": "address",
          "name": "owner",
          "type": "address"
        },
        {
          "internalType": "address",
          "name": "operator",
          "type": "address"
        }
      ],
      "name": "isApprovedForAll",
      "outputs": [
        {
          "internalType": "bool",
          "name": "",
          "type": "bool"
        }
      ],
      "stateMutability": "view",
      "type": "function",
      "constant": true
    },
    {
      "inputs": [],
      "name": "name",
      "outputs": [
        {
          "internalType": "string",
          "name": "",
          "type": "string"
        }
      ],
      "stateMutability": "view",
      "type": "function",
      "constant": true
    },
    {
      "inputs": [
        {
          "internalType": "uint256",
          "name": "tokenId",
          "type": "uint256"
        }
      ],
      "name": "ownerOf",
      "outputs": [
        {
          "internalType": "address",
          "name": "",
          "type": "address"
        }
      ],
      "stateMutability": "view",
      "type": "function",
      "constant": true
    },
    {
      "inputs": [],
      "name": "paused",
      "outputs": [
        {
          "internalType": "bool",
          "name": "",
          "type": "bool"
        }
      ],
      "stateMutability": "view",
      "type": "function",
      "constant": true
    },
    {
      "inputs": [
        {
          "internalType": "bytes32",
          "name": "role",
          "type": "bytes32"
        },
        {
          "internalType": "address",
          "name": "account",
          "type": "address"
        }
      ],
      "name": "renounceRole",
      "outputs": [],
      "stateMutability": "nonpayable",
      "type": "function"
    },
    {
      "inputs": [
        {
          "internalType": "bytes32",
          "name": "role",
          "type": "bytes32"
        },
        {
          "internalType": "address",
          "name": "account",
          "type": "address"
        }
      ],
      "name": "revokeRole",
      "outputs": [],
      "stateMutability": "nonpayable",
      "type": "function"
    },
    {
      "inputs": [
        {
          "internalType": "address",
          "name": "from",
          "type": "address"
        },
        {
          "internalType": "address",
          "name": "to",
          "type": "address"
        },
        {
          "internalType": "uint256",
          "name": "tokenId",
          "type": "uint256"
        }
      ],
      "name": "safeTransferFrom",
      "outputs": [],
      "stateMutability": "nonpayable",
      "type": "function"
    },
    {
      "inputs": [
        {
          "internalType": "address",
          "name": "from",
          "type": "address"
        },
        {
          "internalType": "address",
          "name": "to",
          "type": "address"
        },
        {
          "internalType": "uint256",
          "name": "tokenId",
          "type": "uint256"
        },
        {
          "internalType": "bytes",
          "name": "_data",
          "type": "bytes"
        }
      ],
      "name": "safeTransferFrom",
      "outputs": [],
      "stateMutability": "nonpayable",
      "type": "function"
    },
    {
      "inputs": [
        {
          "internalType": "address",
          "name": "operator",
          "type": "address"
        },
        {
          "internalType": "bool",
          "name": "approved",
          "type": "bool"
        }
      ],
      "name": "setApprovalForAll",
      "outputs": [],
      "stateMutability": "nonpayable",
      "type": "function"
    },
    {
      "inputs": [],
      "name": "symbol",
      "outputs": [
        {
          "internalType": "string",
          "name": "",
          "type": "string"
        }
      ],
      "stateMutability": "view",
      "type": "function",
      "constant": true
    },
    {
      "inputs": [
        {
          "internalType": "uint256",
          "name": "index",
          "type": "uint256"
        }
      ],
      "name": "tokenByIndex",
      "outputs": [
        {
          "internalType": "uint256",
          "name": "",
          "type": "uint256"
        }
      ],
      "stateMutability": "view",
      "type": "function",
      "constant": true
    },
    {
      "inputs": [
        {
          "internalType": "address",
          "name": "owner",
          "type": "address"
        },
        {
          "internalType": "uint256",
          "name": "index",
          "type": "uint256"
        }
      ],
      "name": "tokenOfOwnerByIndex",
      "outputs": [
        {
          "internalType": "uint256",
          "name": "",
          "type": "uint256"
        }
      ],
      "stateMutability": "view",
      "type": "function",
      "constant": true
    },
    {
      "inputs": [],
      "name": "totalSupply",
      "outputs": [
        {
          "internalType": "uint256",
          "name": "",
          "type": "uint256"
        }
      ],
      "stateMutability": "view",
      "type": "function",
      "constant": true
    },
    {
      "inputs": [
        {
          "internalType": "address",
          "name": "from",
          "type": "address"
        },
        {
          "internalType": "address",
          "name": "to",
          "type": "address"
        },
        {
          "internalType": "uint256",
          "name": "tokenId",
          "type": "uint256"
        }
      ],
      "name": "transferFrom",
      "outputs": [],
      "stateMutability": "nonpayable",
      "type": "function"
    },
    {
      "inputs": [
        {
          "internalType": "address",
          "name": "_to",
          "type": "address"
        },
        {
          "internalType": "string[]",
          "name": "_hashes",
          "type": "string[]"
        }
      ],
      "name": "mint",
      "outputs": [],
      "stateMutability": "nonpayable",
      "type": "function"
    },
    {
      "inputs": [],
      "name": "pause",
      "outputs": [],
      "stateMutability": "nonpayable",
      "type": "function"
    },
    {
      "inputs": [],
      "name": "unpause",
      "outputs": [],
      "stateMutability": "nonpayable",
      "type": "function"
    },
    {
      "inputs": [
        {
          "internalType": "address",
          "name": "to",
          "type": "address"
        },
        {
          "internalType": "string",
          "name": "uri",
          "type": "string"
        }
      ],
      "name": "safeMint",
      "outputs": [],
      "stateMutability": "nonpayable",
      "type": "function"
    },
    {
      "inputs": [
        {
          "internalType": "uint256",
          "name": "tokenId",
          "type": "uint256"
        }
      ],
      "name": "tokenURI",
      "outputs": [
        {
          "internalType": "string",
          "name": "",
          "type": "string"
        }
      ],
      "stateMutability": "view",
      "type": "function",
      "constant": true
    },
    {
      "inputs": [
        {
          "internalType": "bytes4",
          "name": "interfaceId",
          "type": "bytes4"
        }
      ],
      "name": "supportsInterface",
      "outputs": [
        {
          "internalType": "bool",
          "name": "",
          "type": "bool"
        }
      ],
      "stateMutability": "view",
      "type": "function",
      "constant": true
    }
  ],
  "bytecode": "0x60806040523480156200001157600080fd5b506040518060400160405280600881526020017f546f6b656e3732310000000000000000000000000000000000000000000000008152506040518060400160405280600381526020017f464a410000000000000000000000000000000000000000000000000000000000815250816000908051906020019062000096929190620002ff565b508060019080519060200190620000af929190620002ff565b5050506000600b60006101000a81548160ff021916908315150217905550620000e26000801b336200019a60201b60201c565b620001147f65d7a28e3265b37a6474929f336521b332c1681b933f6cb9f3376673440d862a336200019a60201b60201c565b620001467f9f2df0fed2c77648de5860a4cc508cd0818c85b8b8a1ab4ceeef8d981c8956a6336200019a60201b60201c565b6040518060400160405280601581526020017f68747470733a2f2f697066732e696f2f697066732f0000000000000000000000815250600e908051906020019062000193929190620002ff565b5062000414565b620001ac82826200028c60201b60201c565b62000288576001600c600084815260200190815260200160002060000160008373ffffffffffffffffffffffffffffffffffffffff1673ffffffffffffffffffffffffffffffffffffffff16815260200190815260200160002060006101000a81548160ff0219169083151502179055506200022d620002f760201b60201c565b73ffffffffffffffffffffffffffffffffffffffff168173ffffffffffffffffffffffffffffffffffffffff16837f2f8788117e7eff1d82e926ec794901d17c78024a50270940304540a733656f0d60405160405180910390a45b5050565b6000600c600084815260200190815260200160002060000160008373ffffffffffffffffffffffffffffffffffffffff1673ffffffffffffffffffffffffffffffffffffffff16815260200190815260200160002060009054906101000a900460ff16905092915050565b600033905090565b8280546200030d90620003af565b90600052602060002090601f0160209004810192826200033157600085556200037d565b82601f106200034c57805160ff19168380011785556200037d565b828001600101855582156200037d579182015b828111156200037c5782518255916020019190600101906200035f565b5b5090506200038c919062000390565b5090565b5b80821115620003ab57600081600090555060010162000391565b5090565b60006002820490506001821680620003c857607f821691505b60208210811415620003df57620003de620003e5565b5b50919050565b7f4e487b7100000000000000000000000000000000000000000000000000000000600052602260045260246000fd5b6146b080620004246000396000f3fe608060405234801561001057600080fd5b50600436106101e55760003560e01c80636352211e1161010f578063b88d4fde116100a2578063d547741f11610071578063d547741f1461057c578063d90794cf14610598578063e63ab1e9146105b4578063e985e9c5146105d2576101e5565b8063b88d4fde146104f6578063c87b56dd14610512578063d204c45e14610542578063d53913931461055e576101e5565b806391d14854116100de57806391d148541461046e57806395d89b411461049e578063a217fddf146104bc578063a22cb465146104da576101e5565b80636352211e146103e65780636c0360eb1461041657806370a08231146104345780638456cb5914610464576101e5565b80632f2ff15d1161018757806342842e0e1161015657806342842e0e1461036057806342966c681461037c5780634f6ccce7146103985780635c975abb146103c8576101e5565b80632f2ff15d146102ee5780632f745c591461030a57806336568abe1461033a5780633f4ba83a14610356576101e5565b8063095ea7b3116101c3578063095ea7b31461026857806318160ddd1461028457806323b872dd146102a2578063248a9ca3146102be576101e5565b806301ffc9a7146101ea57806306fdde031461021a578063081812fc14610238575b600080fd5b61020460048036038101906101ff9190613293565b610602565b6040516102119190613879565b60405180910390f35b610222610614565b60405161022f91906138af565b60405180910390f35b610252600480360381019061024d91906132e5565b6106a6565b60405161025f9190613812565b60405180910390f35b610282600480360381019061027d91906131f2565b61072b565b005b61028c610843565b6040516102999190613b91565b60405180910390f35b6102bc60048036038101906102b79190613044565b610850565b005b6102d860048036038101906102d3919061322e565b6108b0565b6040516102e59190613894565b60405180910390f35b61030860048036038101906103039190613257565b6108d0565b005b610324600480360381019061031f91906131f2565b6108f9565b6040516103319190613b91565b60405180910390f35b610354600480360381019061034f9190613257565b61099e565b005b61035e610a21565b005b61037a60048036038101906103759190613044565b610a5e565b005b610396600480360381019061039191906132e5565b610a7e565b005b6103b260048036038101906103ad91906132e5565b610ada565b6040516103bf9190613b91565b60405180910390f35b6103d0610b71565b6040516103dd9190613879565b60405180910390f35b61040060048036038101906103fb91906132e5565b610b88565b60405161040d9190613812565b60405180910390f35b61041e610c3a565b60405161042b91906138af565b60405180910390f35b61044e60048036038101906104499190612fdf565b610cc8565b60405161045b9190613b91565b60405180910390f35b61046c610d80565b005b61048860048036038101906104839190613257565b610dbd565b6040516104959190613879565b60405180910390f35b6104a6610e28565b6040516104b391906138af565b60405180910390f35b6104c4610eba565b6040516104d19190613894565b60405180910390f35b6104f460048036038101906104ef9190613162565b610ec1565b005b610510600480360381019061050b9190613093565b610ed7565b005b61052c600480360381019061052791906132e5565b610f39565b60405161053991906138af565b60405180910390f35b61055c6004803603810190610557919061319e565b611015565b005b610566611079565b6040516105739190613894565b60405180910390f35b61059660048036038101906105919190613257565b61109d565b005b6105b260048036038101906105ad919061310e565b6110c6565b005b6105bc6111b4565b6040516105c99190613894565b60405180910390f35b6105ec60048036038101906105e79190613008565b6111d8565b6040516105f99190613879565b60405180910390f35b600061060d8261126c565b9050919050565b60606000805461062390613e85565b80601f016020809104026020016040519081016040528092919081815260200182805461064f90613e85565b801561069c5780601f106106715761010080835404028352916020019161069c565b820191906000526020600020905b81548152906001019060200180831161067f57829003601f168201915b5050505050905090565b60006106b1826112e6565b6106f0576040517f08c379a00000000000000000000000000000000000000000000000000000000081526004016106e790613ab1565b60405180910390fd5b6004600083815260200190815260200160002060009054906101000a900473ffffffffffffffffffffffffffffffffffffffff169050919050565b600061073682610b88565b90508073ffffffffffffffffffffffffffffffffffffffff168373ffffffffffffffffffffffffffffffffffffffff1614156107a7576040517f08c379a000000000000000000000000000000000000000000000000000000000815260040161079e90613af1565b60405180910390fd5b8073ffffffffffffffffffffffffffffffffffffffff166107c6611352565b73ffffffffffffffffffffffffffffffffffffffff1614806107f557506107f4816107ef611352565b6111d8565b5b610834576040517f08c379a000000000000000000000000000000000000000000000000000000000815260040161082b90613a11565b60405180910390fd5b61083e838361135a565b505050565b6000600880549050905090565b61086161085b611352565b82611413565b6108a0576040517f08c379a000000000000000000000000000000000000000000000000000000000815260040161089790613b11565b60405180910390fd5b6108ab8383836114f1565b505050565b6000600c6000838152602001908152602001600020600101549050919050565b6108d9826108b0565b6108ea816108e5611352565b611758565b6108f483836117f5565b505050565b600061090483610cc8565b8210610945576040517f08c379a000000000000000000000000000000000000000000000000000000000815260040161093c90613911565b60405180910390fd5b600660008473ffffffffffffffffffffffffffffffffffffffff1673ffffffffffffffffffffffffffffffffffffffff168152602001908152602001600020600083815260200190815260200160002054905092915050565b6109a6611352565b73ffffffffffffffffffffffffffffffffffffffff168173ffffffffffffffffffffffffffffffffffffffff1614610a13576040517f08c379a0000000000000000000000000000000000000000000000000000000008152600401610a0a90613b71565b60405180910390fd5b610a1d82826118d6565b5050565b7f65d7a28e3265b37a6474929f336521b332c1681b933f6cb9f3376673440d862a610a5381610a4e611352565b611758565b610a5b6119b8565b50565b610a7983838360405180602001604052806000815250610ed7565b505050565b610a8f610a89611352565b82611413565b610ace576040517f08c379a0000000000000000000000000000000000000000000000000000000008152600401610ac590613b51565b60405180910390fd5b610ad781611a5a565b50565b6000610ae4610843565b8210610b25576040517f08c379a0000000000000000000000000000000000000000000000000000000008152600401610b1c90613b31565b60405180910390fd5b60088281548110610b5f577f4e487b7100000000000000000000000000000000000000000000000000000000600052603260045260246000fd5b90600052602060002001549050919050565b6000600b60009054906101000a900460ff16905090565b6000806002600084815260200190815260200160002060009054906101000a900473ffffffffffffffffffffffffffffffffffffffff169050600073ffffffffffffffffffffffffffffffffffffffff168173ffffffffffffffffffffffffffffffffffffffff161415610c31576040517f08c379a0000000000000000000000000000000000000000000000000000000008152600401610c2890613a51565b60405180910390fd5b80915050919050565b600e8054610c4790613e85565b80601f0160208091040260200160405190810160405280929190818152602001828054610c7390613e85565b8015610cc05780601f10610c9557610100808354040283529160200191610cc0565b820191906000526020600020905b815481529060010190602001808311610ca357829003601f168201915b505050505081565b60008073ffffffffffffffffffffffffffffffffffffffff168273ffffffffffffffffffffffffffffffffffffffff161415610d39576040517f08c379a0000000000000000000000000000000000000000000000000000000008152600401610d3090613a31565b60405180910390fd5b600360008373ffffffffffffffffffffffffffffffffffffffff1673ffffffffffffffffffffffffffffffffffffffff168152602001908152602001600020549050919050565b7f65d7a28e3265b37a6474929f336521b332c1681b933f6cb9f3376673440d862a610db281610dad611352565b611758565b610dba611a66565b50565b6000600c600084815260200190815260200160002060000160008373ffffffffffffffffffffffffffffffffffffffff1673ffffffffffffffffffffffffffffffffffffffff16815260200190815260200160002060009054906101000a900460ff16905092915050565b606060018054610e3790613e85565b80601f0160208091040260200160405190810160405280929190818152602001828054610e6390613e85565b8015610eb05780601f10610e8557610100808354040283529160200191610eb0565b820191906000526020600020905b815481529060010190602001808311610e9357829003601f168201915b5050505050905090565b6000801b81565b610ed3610ecc611352565b8383611b09565b5050565b610ee8610ee2611352565b83611413565b610f27576040517f08c379a0000000000000000000000000000000000000000000000000000000008152600401610f1e90613b11565b60405180910390fd5b610f3384848484611c76565b50505050565b6060610f44826112e6565b610f83576040517f08c379a0000000000000000000000000000000000000000000000000000000008152600401610f7a90613ad1565b60405180910390fd5b6000610f8d611cd2565b905060008151118015610fbf57506000600f60008581526020019081526020016000208054610fbb90613e85565b9050115b610fd8576040518060200160405280600081525061100d565b80600f6000858152602001908152602001600020604051602001610ffd9291906137b4565b6040516020818303038152906040525b915050919050565b7f9f2df0fed2c77648de5860a4cc508cd0818c85b8b8a1ab4ceeef8d981c8956a661104781611042611352565b611758565b6000611053600d611d64565b905061105f600d611d72565b6110698482611d88565b6110738184611da6565b50505050565b7f9f2df0fed2c77648de5860a4cc508cd0818c85b8b8a1ab4ceeef8d981c8956a681565b6110a6826108b0565b6110b7816110b2611352565b611758565b6110c183836118d6565b505050565b7f9f2df0fed2c77648de5860a4cc508cd0818c85b8b8a1ab4ceeef8d981c8956a66110f8816110f3611352565b611758565b6000611102610843565b905060005b83518110156111ad57611126856001846111219190613cb7565b611d88565b83818151811061115f577f4e487b7100000000000000000000000000000000000000000000000000000000600052603260045260246000fd5b6020026020010151600f60006001856111789190613cb7565b81526020019081526020016000209080519060200190611199929190612d27565b5080806111a590613ee8565b915050611107565b5050505050565b7f65d7a28e3265b37a6474929f336521b332c1681b933f6cb9f3376673440d862a81565b6000600560008473ffffffffffffffffffffffffffffffffffffffff1673ffffffffffffffffffffffffffffffffffffffff16815260200190815260200160002060008373ffffffffffffffffffffffffffffffffffffffff1673ffffffffffffffffffffffffffffffffffffffff16815260200190815260200160002060009054906101000a900460ff16905092915050565b60007f7965db0b000000000000000000000000000000000000000000000000000000007bffffffffffffffffffffffffffffffffffffffffffffffffffffffff1916827bffffffffffffffffffffffffffffffffffffffffffffffffffffffff191614806112df57506112de82611e1a565b5b9050919050565b60008073ffffffffffffffffffffffffffffffffffffffff166002600084815260200190815260200160002060009054906101000a900473ffffffffffffffffffffffffffffffffffffffff1673ffffffffffffffffffffffffffffffffffffffff1614159050919050565b600033905090565b816004600083815260200190815260200160002060006101000a81548173ffffffffffffffffffffffffffffffffffffffff021916908373ffffffffffffffffffffffffffffffffffffffff160217905550808273ffffffffffffffffffffffffffffffffffffffff166113cd83610b88565b73ffffffffffffffffffffffffffffffffffffffff167f8c5be1e5ebec7d5bd14f71427d1e84f3dd0314c0f7b2291e5b200ac8c7c3b92560405160405180910390a45050565b600061141e826112e6565b61145d576040517f08c379a0000000000000000000000000000000000000000000000000000000008152600401611454906139d1565b60405180910390fd5b600061146883610b88565b90508073ffffffffffffffffffffffffffffffffffffffff168473ffffffffffffffffffffffffffffffffffffffff1614806114d757508373ffffffffffffffffffffffffffffffffffffffff166114bf846106a6565b73ffffffffffffffffffffffffffffffffffffffff16145b806114e857506114e781856111d8565b5b91505092915050565b8273ffffffffffffffffffffffffffffffffffffffff1661151182610b88565b73ffffffffffffffffffffffffffffffffffffffff1614611567576040517f08c379a000000000000000000000000000000000000000000000000000000000815260040161155e90613951565b60405180910390fd5b600073ffffffffffffffffffffffffffffffffffffffff168273ffffffffffffffffffffffffffffffffffffffff1614156115d7576040517f08c379a00000000000000000000000000000000000000000000000000000000081526004016115ce90613991565b60405180910390fd5b6115e2838383611e94565b6115ed60008261135a565b6001600360008573ffffffffffffffffffffffffffffffffffffffff1673ffffffffffffffffffffffffffffffffffffffff168152602001908152602001600020600082825461163d9190613d67565b925050819055506001600360008473ffffffffffffffffffffffffffffffffffffffff1673ffffffffffffffffffffffffffffffffffffffff16815260200190815260200160002060008282546116949190613cb7565b92505081905550816002600083815260200190815260200160002060006101000a81548173ffffffffffffffffffffffffffffffffffffffff021916908373ffffffffffffffffffffffffffffffffffffffff160217905550808273ffffffffffffffffffffffffffffffffffffffff168473ffffffffffffffffffffffffffffffffffffffff167fddf252ad1be2c89b69c2b068fc378daa952ba7f163c4a11628f55a4df523b3ef60405160405180910390a4611753838383611eec565b505050565b6117628282610dbd565b6117f1576117878173ffffffffffffffffffffffffffffffffffffffff166014611ef1565b6117958360001c6020611ef1565b6040516020016117a69291906137d8565b6040516020818303038152906040526040517f08c379a00000000000000000000000000000000000000000000000000000000081526004016117e891906138af565b60405180910390fd5b5050565b6117ff8282610dbd565b6118d2576001600c600084815260200190815260200160002060000160008373ffffffffffffffffffffffffffffffffffffffff1673ffffffffffffffffffffffffffffffffffffffff16815260200190815260200160002060006101000a81548160ff021916908315150217905550611877611352565b73ffffffffffffffffffffffffffffffffffffffff168173ffffffffffffffffffffffffffffffffffffffff16837f2f8788117e7eff1d82e926ec794901d17c78024a50270940304540a733656f0d60405160405180910390a45b5050565b6118e08282610dbd565b156119b4576000600c600084815260200190815260200160002060000160008373ffffffffffffffffffffffffffffffffffffffff1673ffffffffffffffffffffffffffffffffffffffff16815260200190815260200160002060006101000a81548160ff021916908315150217905550611959611352565b73ffffffffffffffffffffffffffffffffffffffff168173ffffffffffffffffffffffffffffffffffffffff16837ff6391f5c32d9c69d2a47ea670b442974b53935d1edc7fd64eb21e047a839171b60405160405180910390a45b5050565b6119c0610b71565b6119ff576040517f08c379a00000000000000000000000000000000000000000000000000000000081526004016119f6906138f1565b60405180910390fd5b6000600b60006101000a81548160ff0219169083151502179055507f5db9ee0a495bf2e6ff9c91a7834c1ba4fdd244a5e8aa4e537bd38aeae4b073aa611a43611352565b604051611a509190613812565b60405180910390a1565b611a63816121eb565b50565b611a6e610b71565b15611aae576040517f08c379a0000000000000000000000000000000000000000000000000000000008152600401611aa5906139f1565b60405180910390fd5b6001600b60006101000a81548160ff0219169083151502179055507f62e78cea01bee320cd4e420270b5ea74000d11b0c9f74754ebdbfc544b05a258611af2611352565b604051611aff9190613812565b60405180910390a1565b8173ffffffffffffffffffffffffffffffffffffffff168373ffffffffffffffffffffffffffffffffffffffff161415611b78576040517f08c379a0000000000000000000000000000000000000000000000000000000008152600401611b6f906139b1565b60405180910390fd5b80600560008573ffffffffffffffffffffffffffffffffffffffff1673ffffffffffffffffffffffffffffffffffffffff16815260200190815260200160002060008473ffffffffffffffffffffffffffffffffffffffff1673ffffffffffffffffffffffffffffffffffffffff16815260200190815260200160002060006101000a81548160ff0219169083151502179055508173ffffffffffffffffffffffffffffffffffffffff168373ffffffffffffffffffffffffffffffffffffffff167f17307eab39ab6107e8899845ad3d59bd9653f200f220920489ca2b5937696c3183604051611c699190613879565b60405180910390a3505050565b611c818484846114f1565b611c8d8484848461223e565b611ccc576040517f08c379a0000000000000000000000000000000000000000000000000000000008152600401611cc390613931565b60405180910390fd5b50505050565b6060600e8054611ce190613e85565b80601f0160208091040260200160405190810160405280929190818152602001828054611d0d90613e85565b8015611d5a5780601f10611d2f57610100808354040283529160200191611d5a565b820191906000526020600020905b815481529060010190602001808311611d3d57829003601f168201915b5050505050905090565b600081600001549050919050565b6001816000016000828254019250508190555050565b611da28282604051806020016040528060008152506123d5565b5050565b611daf826112e6565b611dee576040517f08c379a0000000000000000000000000000000000000000000000000000000008152600401611de590613a71565b60405180910390fd5b80600a60008481526020019081526020016000209080519060200190611e15929190612d27565b505050565b60007f780e9d63000000000000000000000000000000000000000000000000000000007bffffffffffffffffffffffffffffffffffffffffffffffffffffffff1916827bffffffffffffffffffffffffffffffffffffffffffffffffffffffff19161480611e8d5750611e8c82612430565b5b9050919050565b611e9c610b71565b15611edc576040517f08c379a0000000000000000000000000000000000000000000000000000000008152600401611ed3906139f1565b60405180910390fd5b611ee7838383612512565b505050565b505050565b606060006002836002611f049190613d0d565b611f0e9190613cb7565b67ffffffffffffffff811115611f4d577f4e487b7100000000000000000000000000000000000000000000000000000000600052604160045260246000fd5b6040519080825280601f01601f191660200182016040528015611f7f5781602001600182028036833780820191505090505b5090507f300000000000000000000000000000000000000000000000000000000000000081600081518110611fdd577f4e487b7100000000000000000000000000000000000000000000000000000000600052603260045260246000fd5b60200101907effffffffffffffffffffffffffffffffffffffffffffffffffffffffffffff1916908160001a9053507f780000000000000000000000000000000000000000000000000000000000000081600181518110612067577f4e487b7100000000000000000000000000000000000000000000000000000000600052603260045260246000fd5b60200101907effffffffffffffffffffffffffffffffffffffffffffffffffffffffffffff1916908160001a905350600060018460026120a79190613d0d565b6120b19190613cb7565b90505b600181111561219d577f3031323334353637383961626364656600000000000000000000000000000000600f861660108110612119577f4e487b7100000000000000000000000000000000000000000000000000000000600052603260045260246000fd5b1a60f81b828281518110612156577f4e487b7100000000000000000000000000000000000000000000000000000000600052603260045260246000fd5b60200101907effffffffffffffffffffffffffffffffffffffffffffffffffffffffffffff1916908160001a905350600485901c94508061219690613e5b565b90506120b4565b50600084146121e1576040517f08c379a00000000000000000000000000000000000000000000000000000000081526004016121d8906138d1565b60405180910390fd5b8091505092915050565b6121f481612626565b6000600a6000838152602001908152602001600020805461221490613e85565b90501461223b57600a6000828152602001908152602001600020600061223a9190612dad565b5b50565b600061225f8473ffffffffffffffffffffffffffffffffffffffff16612743565b156123c8578373ffffffffffffffffffffffffffffffffffffffff1663150b7a02612288611352565b8786866040518563ffffffff1660e01b81526004016122aa949392919061382d565b602060405180830381600087803b1580156122c457600080fd5b505af19250505080156122f557506040513d601f19601f820116820180604052508101906122f291906132bc565b60015b612378573d8060008114612325576040519150601f19603f3d011682016040523d82523d6000602084013e61232a565b606091505b50600081511415612370576040517f08c379a000000000000000000000000000000000000000000000000000000000815260040161236790613931565b60405180910390fd5b805181602001fd5b63150b7a0260e01b7bffffffffffffffffffffffffffffffffffffffffffffffffffffffff1916817bffffffffffffffffffffffffffffffffffffffffffffffffffffffff1916149150506123cd565b600190505b949350505050565b6123df8383612766565b6123ec600084848461223e565b61242b576040517f08c379a000000000000000000000000000000000000000000000000000000000815260040161242290613931565b60405180910390fd5b505050565b60007f80ac58cd000000000000000000000000000000000000000000000000000000007bffffffffffffffffffffffffffffffffffffffffffffffffffffffff1916827bffffffffffffffffffffffffffffffffffffffffffffffffffffffff191614806124fb57507f5b5e139f000000000000000000000000000000000000000000000000000000007bffffffffffffffffffffffffffffffffffffffffffffffffffffffff1916827bffffffffffffffffffffffffffffffffffffffffffffffffffffffff1916145b8061250b575061250a82612940565b5b9050919050565b61251d8383836129aa565b600073ffffffffffffffffffffffffffffffffffffffff168373ffffffffffffffffffffffffffffffffffffffff1614156125605761255b816129af565b61259f565b8173ffffffffffffffffffffffffffffffffffffffff168373ffffffffffffffffffffffffffffffffffffffff161461259e5761259d83826129f8565b5b5b600073ffffffffffffffffffffffffffffffffffffffff168273ffffffffffffffffffffffffffffffffffffffff1614156125e2576125dd81612b65565b612621565b8273ffffffffffffffffffffffffffffffffffffffff168273ffffffffffffffffffffffffffffffffffffffff16146126205761261f8282612ca8565b5b5b505050565b600061263182610b88565b905061263f81600084611e94565b61264a60008361135a565b6001600360008373ffffffffffffffffffffffffffffffffffffffff1673ffffffffffffffffffffffffffffffffffffffff168152602001908152602001600020600082825461269a9190613d67565b925050819055506002600083815260200190815260200160002060006101000a81549073ffffffffffffffffffffffffffffffffffffffff021916905581600073ffffffffffffffffffffffffffffffffffffffff168273ffffffffffffffffffffffffffffffffffffffff167fddf252ad1be2c89b69c2b068fc378daa952ba7f163c4a11628f55a4df523b3ef60405160405180910390a461273f81600084611eec565b5050565b6000808273ffffffffffffffffffffffffffffffffffffffff163b119050919050565b600073ffffffffffffffffffffffffffffffffffffffff168273ffffffffffffffffffffffffffffffffffffffff1614156127d6576040517f08c379a00000000000000000000000000000000000000000000000000000000081526004016127cd90613a91565b60405180910390fd5b6127df816112e6565b1561281f576040517f08c379a000000000000000000000000000000000000000000000000000000000815260040161281690613971565b60405180910390fd5b61282b60008383611e94565b6001600360008473ffffffffffffffffffffffffffffffffffffffff1673ffffffffffffffffffffffffffffffffffffffff168152602001908152602001600020600082825461287b9190613cb7565b92505081905550816002600083815260200190815260200160002060006101000a81548173ffffffffffffffffffffffffffffffffffffffff021916908373ffffffffffffffffffffffffffffffffffffffff160217905550808273ffffffffffffffffffffffffffffffffffffffff16600073ffffffffffffffffffffffffffffffffffffffff167fddf252ad1be2c89b69c2b068fc378daa952ba7f163c4a11628f55a4df523b3ef60405160405180910390a461293c60008383611eec565b5050565b60007f01ffc9a7000000000000000000000000000000000000000000000000000000007bffffffffffffffffffffffffffffffffffffffffffffffffffffffff1916827bffffffffffffffffffffffffffffffffffffffffffffffffffffffff1916149050919050565b505050565b6008805490506009600083815260200190815260200160002081905550600881908060018154018082558091505060019003906000526020600020016000909190919091505550565b60006001612a0584610cc8565b612a0f9190613d67565b9050600060076000848152602001908152602001600020549050818114612af4576000600660008673ffffffffffffffffffffffffffffffffffffffff1673ffffffffffffffffffffffffffffffffffffffff168152602001908152602001600020600084815260200190815260200160002054905080600660008773ffffffffffffffffffffffffffffffffffffffff1673ffffffffffffffffffffffffffffffffffffffff168152602001908152602001600020600084815260200190815260200160002081905550816007600083815260200190815260200160002081905550505b6007600084815260200190815260200160002060009055600660008573ffffffffffffffffffffffffffffffffffffffff1673ffffffffffffffffffffffffffffffffffffffff16815260200190815260200160002060008381526020019081526020016000206000905550505050565b60006001600880549050612b799190613d67565b9050600060096000848152602001908152602001600020549050600060088381548110612bcf577f4e487b7100000000000000000000000000000000000000000000000000000000600052603260045260246000fd5b906000526020600020015490508060088381548110612c17577f4e487b7100000000000000000000000000000000000000000000000000000000600052603260045260246000fd5b906000526020600020018190555081600960008381526020019081526020016000208190555060096000858152602001908152602001600020600090556008805480612c8c577f4e487b7100000000000000000000000000000000000000000000000000000000600052603160045260246000fd5b6001900381819060005260206000200160009055905550505050565b6000612cb383610cc8565b905081600660008573ffffffffffffffffffffffffffffffffffffffff1673ffffffffffffffffffffffffffffffffffffffff168152602001908152602001600020600083815260200190815260200160002081905550806007600084815260200190815260200160002081905550505050565b828054612d3390613e85565b90600052602060002090601f016020900481019282612d555760008555612d9c565b82601f10612d6e57805160ff1916838001178555612d9c565b82800160010185558215612d9c579182015b82811115612d9b578251825591602001919060010190612d80565b5b509050612da99190612ded565b5090565b508054612db990613e85565b6000825580601f10612dcb5750612dea565b601f016020900490600052602060002090810190612de99190612ded565b5b50565b5b80821115612e06576000816000905550600101612dee565b5090565b6000612e1d612e1884613bd1565b613bac565b9050808382526020820190508260005b85811015612e5d5781358501612e438882612fa0565b845260208401935060208301925050600181019050612e2d565b5050509392505050565b6000612e7a612e7584613bfd565b613bac565b905082815260208101848484011115612e9257600080fd5b612e9d848285613e19565b509392505050565b6000612eb8612eb384613c2e565b613bac565b905082815260208101848484011115612ed057600080fd5b612edb848285613e19565b509392505050565b600081359050612ef281614607565b92915050565b600082601f830112612f0957600080fd5b8135612f19848260208601612e0a565b91505092915050565b600081359050612f318161461e565b92915050565b600081359050612f4681614635565b92915050565b600081359050612f5b8161464c565b92915050565b600081519050612f708161464c565b92915050565b600082601f830112612f8757600080fd5b8135612f97848260208601612e67565b91505092915050565b600082601f830112612fb157600080fd5b8135612fc1848260208601612ea5565b91505092915050565b600081359050612fd981614663565b92915050565b600060208284031215612ff157600080fd5b6000612fff84828501612ee3565b91505092915050565b6000806040838503121561301b57600080fd5b600061302985828601612ee3565b925050602061303a85828601612ee3565b9150509250929050565b60008060006060848603121561305957600080fd5b600061306786828701612ee3565b935050602061307886828701612ee3565b925050604061308986828701612fca565b9150509250925092565b600080600080608085870312156130a957600080fd5b60006130b787828801612ee3565b94505060206130c887828801612ee3565b93505060406130d987828801612fca565b925050606085013567ffffffffffffffff8111156130f657600080fd5b61310287828801612f76565b91505092959194509250565b6000806040838503121561312157600080fd5b600061312f85828601612ee3565b925050602083013567ffffffffffffffff81111561314c57600080fd5b61315885828601612ef8565b9150509250929050565b6000806040838503121561317557600080fd5b600061318385828601612ee3565b925050602061319485828601612f22565b9150509250929050565b600080604083850312156131b157600080fd5b60006131bf85828601612ee3565b925050602083013567ffffffffffffffff8111156131dc57600080fd5b6131e885828601612fa0565b9150509250929050565b6000806040838503121561320557600080fd5b600061321385828601612ee3565b925050602061322485828601612fca565b9150509250929050565b60006020828403121561324057600080fd5b600061324e84828501612f37565b91505092915050565b6000806040838503121561326a57600080fd5b600061327885828601612f37565b925050602061328985828601612ee3565b9150509250929050565b6000602082840312156132a557600080fd5b60006132b384828501612f4c565b91505092915050565b6000602082840312156132ce57600080fd5b60006132dc84828501612f61565b91505092915050565b6000602082840312156132f757600080fd5b600061330584828501612fca565b91505092915050565b61331781613d9b565b82525050565b61332681613dad565b82525050565b61333581613db9565b82525050565b600061334682613c74565b6133508185613c8a565b9350613360818560208601613e28565b61336981613fbe565b840191505092915050565b600061337f82613c7f565b6133898185613c9b565b9350613399818560208601613e28565b6133a281613fbe565b840191505092915050565b60006133b882613c7f565b6133c28185613cac565b93506133d2818560208601613e28565b80840191505092915050565b600081546133eb81613e85565b6133f58186613cac565b94506001821660008114613410576001811461342157613454565b60ff19831686528186019350613454565b61342a85613c5f565b60005b8381101561344c5781548189015260018201915060208101905061342d565b838801955050505b50505092915050565b600061346a602083613c9b565b915061347582613fcf565b602082019050919050565b600061348d601483613c9b565b915061349882613ff8565b602082019050919050565b60006134b0602b83613c9b565b91506134bb82614021565b604082019050919050565b60006134d3603283613c9b565b91506134de82614070565b604082019050919050565b60006134f6602583613c9b565b9150613501826140bf565b604082019050919050565b6000613519601c83613c9b565b91506135248261410e565b602082019050919050565b600061353c602483613c9b565b915061354782614137565b604082019050919050565b600061355f601983613c9b565b915061356a82614186565b602082019050919050565b6000613582602c83613c9b565b915061358d826141af565b604082019050919050565b60006135a5601083613c9b565b91506135b0826141fe565b602082019050919050565b60006135c8603883613c9b565b91506135d382614227565b604082019050919050565b60006135eb602a83613c9b565b91506135f682614276565b604082019050919050565b600061360e602983613c9b565b9150613619826142c5565b604082019050919050565b6000613631602e83613c9b565b915061363c82614314565b604082019050919050565b6000613654602083613c9b565b915061365f82614363565b602082019050919050565b6000613677602c83613c9b565b91506136828261438c565b604082019050919050565b600061369a602f83613c9b565b91506136a5826143db565b604082019050919050565b60006136bd602183613c9b565b91506136c88261442a565b604082019050919050565b60006136e0603183613c9b565b91506136eb82614479565b604082019050919050565b6000613703602c83613c9b565b915061370e826144c8565b604082019050919050565b6000613726601783613cac565b915061373182614517565b601782019050919050565b6000613749603083613c9b565b915061375482614540565b604082019050919050565b600061376c601183613cac565b91506137778261458f565b601182019050919050565b600061378f602f83613c9b565b915061379a826145b8565b604082019050919050565b6137ae81613e0f565b82525050565b60006137c082856133ad565b91506137cc82846133de565b91508190509392505050565b60006137e382613719565b91506137ef82856133ad565b91506137fa8261375f565b915061380682846133ad565b91508190509392505050565b6000602082019050613827600083018461330e565b92915050565b6000608082019050613842600083018761330e565b61384f602083018661330e565b61385c60408301856137a5565b818103606083015261386e818461333b565b905095945050505050565b600060208201905061388e600083018461331d565b92915050565b60006020820190506138a9600083018461332c565b92915050565b600060208201905081810360008301526138c98184613374565b905092915050565b600060208201905081810360008301526138ea8161345d565b9050919050565b6000602082019050818103600083015261390a81613480565b9050919050565b6000602082019050818103600083015261392a816134a3565b9050919050565b6000602082019050818103600083015261394a816134c6565b9050919050565b6000602082019050818103600083015261396a816134e9565b9050919050565b6000602082019050818103600083015261398a8161350c565b9050919050565b600060208201905081810360008301526139aa8161352f565b9050919050565b600060208201905081810360008301526139ca81613552565b9050919050565b600060208201905081810360008301526139ea81613575565b9050919050565b60006020820190508181036000830152613a0a81613598565b9050919050565b60006020820190508181036000830152613a2a816135bb565b9050919050565b60006020820190508181036000830152613a4a816135de565b9050919050565b60006020820190508181036000830152613a6a81613601565b9050919050565b60006020820190508181036000830152613a8a81613624565b9050919050565b60006020820190508181036000830152613aaa81613647565b9050919050565b60006020820190508181036000830152613aca8161366a565b9050919050565b60006020820190508181036000830152613aea8161368d565b9050919050565b60006020820190508181036000830152613b0a816136b0565b9050919050565b60006020820190508181036000830152613b2a816136d3565b9050919050565b60006020820190508181036000830152613b4a816136f6565b9050919050565b60006020820190508181036000830152613b6a8161373c565b9050919050565b60006020820190508181036000830152613b8a81613782565b9050919050565b6000602082019050613ba660008301846137a5565b92915050565b6000613bb6613bc7565b9050613bc28282613eb7565b919050565b6000604051905090565b600067ffffffffffffffff821115613bec57613beb613f8f565b5b602082029050602081019050919050565b600067ffffffffffffffff821115613c1857613c17613f8f565b5b613c2182613fbe565b9050602081019050919050565b600067ffffffffffffffff821115613c4957613c48613f8f565b5b613c5282613fbe565b9050602081019050919050565b60008190508160005260206000209050919050565b600081519050919050565b600081519050919050565b600082825260208201905092915050565b600082825260208201905092915050565b600081905092915050565b6000613cc282613e0f565b9150613ccd83613e0f565b9250827fffffffffffffffffffffffffffffffffffffffffffffffffffffffffffffffff03821115613d0257613d01613f31565b5b828201905092915050565b6000613d1882613e0f565b9150613d2383613e0f565b9250817fffffffffffffffffffffffffffffffffffffffffffffffffffffffffffffffff0483118215151615613d5c57613d5b613f31565b5b828202905092915050565b6000613d7282613e0f565b9150613d7d83613e0f565b925082821015613d9057613d8f613f31565b5b828203905092915050565b6000613da682613def565b9050919050565b60008115159050919050565b6000819050919050565b60007fffffffff0000000000000000000000000000000000000000000000000000000082169050919050565b600073ffffffffffffffffffffffffffffffffffffffff82169050919050565b6000819050919050565b82818337600083830152505050565b60005b83811015613e46578082015181840152602081019050613e2b565b83811115613e55576000848401525b50505050565b6000613e6682613e0f565b91506000821415613e7a57613e79613f31565b5b600182039050919050565b60006002820490506001821680613e9d57607f821691505b60208210811415613eb157613eb0613f60565b5b50919050565b613ec082613fbe565b810181811067ffffffffffffffff82111715613edf57613ede613f8f565b5b80604052505050565b6000613ef382613e0f565b91507fffffffffffffffffffffffffffffffffffffffffffffffffffffffffffffffff821415613f2657613f25613f31565b5b600182019050919050565b7f4e487b7100000000000000000000000000000000000000000000000000000000600052601160045260246000fd5b7f4e487b7100000000000000000000000000000000000000000000000000000000600052602260045260246000fd5b7f4e487b7100000000000000000000000000000000000000000000000000000000600052604160045260246000fd5b6000601f19601f8301169050919050565b7f537472696e67733a20686578206c656e67746820696e73756666696369656e74600082015250565b7f5061757361626c653a206e6f7420706175736564000000000000000000000000600082015250565b7f455243373231456e756d657261626c653a206f776e657220696e646578206f7560008201527f74206f6620626f756e6473000000000000000000000000000000000000000000602082015250565b7f4552433732313a207472616e7366657220746f206e6f6e20455243373231526560008201527f63656976657220696d706c656d656e7465720000000000000000000000000000602082015250565b7f4552433732313a207472616e736665722066726f6d20696e636f72726563742060008201527f6f776e6572000000000000000000000000000000000000000000000000000000602082015250565b7f4552433732313a20746f6b656e20616c7265616479206d696e74656400000000600082015250565b7f4552433732313a207472616e7366657220746f20746865207a65726f2061646460008201527f7265737300000000000000000000000000000000000000000000000000000000602082015250565b7f4552433732313a20617070726f766520746f2063616c6c657200000000000000600082015250565b7f4552433732313a206f70657261746f7220717565727920666f72206e6f6e657860008201527f697374656e7420746f6b656e0000000000000000000000000000000000000000602082015250565b7f5061757361626c653a2070617573656400000000000000000000000000000000600082015250565b7f4552433732313a20617070726f76652063616c6c6572206973206e6f74206f7760008201527f6e6572206e6f7220617070726f76656420666f7220616c6c0000000000000000602082015250565b7f4552433732313a2062616c616e636520717565727920666f7220746865207a6560008201527f726f206164647265737300000000000000000000000000000000000000000000602082015250565b7f4552433732313a206f776e657220717565727920666f72206e6f6e657869737460008201527f656e7420746f6b656e0000000000000000000000000000000000000000000000602082015250565b7f45524337323155524953746f726167653a2055524920736574206f66206e6f6e60008201527f6578697374656e7420746f6b656e000000000000000000000000000000000000602082015250565b7f4552433732313a206d696e7420746f20746865207a65726f2061646472657373600082015250565b7f4552433732313a20617070726f76656420717565727920666f72206e6f6e657860008201527f697374656e7420746f6b656e0000000000000000000000000000000000000000602082015250565b7f4552433732314d657461646174613a2055524920717565727920666f72206e6f60008201527f6e6578697374656e7420746f6b656e0000000000000000000000000000000000602082015250565b7f4552433732313a20617070726f76616c20746f2063757272656e74206f776e6560008201527f7200000000000000000000000000000000000000000000000000000000000000602082015250565b7f4552433732313a207472616e736665722063616c6c6572206973206e6f74206f60008201527f776e6572206e6f7220617070726f766564000000000000000000000000000000602082015250565b7f455243373231456e756d657261626c653a20676c6f62616c20696e646578206f60008201527f7574206f6620626f756e64730000000000000000000000000000000000000000602082015250565b7f416363657373436f6e74726f6c3a206163636f756e7420000000000000000000600082015250565b7f4552433732314275726e61626c653a2063616c6c6572206973206e6f74206f7760008201527f6e6572206e6f7220617070726f76656400000000000000000000000000000000602082015250565b7f206973206d697373696e6720726f6c6520000000000000000000000000000000600082015250565b7f416363657373436f6e74726f6c3a2063616e206f6e6c792072656e6f756e636560008201527f20726f6c657320666f722073656c660000000000000000000000000000000000602082015250565b61461081613d9b565b811461461b57600080fd5b50565b61462781613dad565b811461463257600080fd5b50565b61463e81613db9565b811461464957600080fd5b50565b61465581613dc3565b811461466057600080fd5b50565b61466c81613e0f565b811461467757600080fd5b5056fea2646970667358221220532f9a1bee6840fa624b14057a29d973a880d3b2aa899b62d60076b056cedf9f64736f6c63430008010033",
  "immutableReferences": {},
  "source": "// SPDX-License-Identifier: MIT\npragma solidity ^0.8.1;\n\nimport \"@openzeppelin/contracts/token/ERC721/ERC721.sol\";\nimport \"@openzeppelin/contracts/token/ERC721/extensions/ERC721Enumerable.sol\";\nimport \"@openzeppelin/contracts/token/ERC721/extensions/ERC721URIStorage.sol\";\nimport \"@openzeppelin/contracts/security/Pausable.sol\";\nimport \"@openzeppelin/contracts/access/AccessControl.sol\";\nimport \"@openzeppelin/contracts/token/ERC721/extensions/ERC721Burnable.sol\";\nimport \"@openzeppelin/contracts/utils/Counters.sol\";\n\ncontract Token721 is ERC721, ERC721Enumerable, ERC721URIStorage, Pausable, AccessControl, ERC721Burnable {\n    using Counters for Counters.Counter;\n\n    bytes32 public constant PAUSER_ROLE = keccak256(\"PAUSER_ROLE\");\n    bytes32 public constant MINTER_ROLE = keccak256(\"MINTER_ROLE\");\n    Counters.Counter private _tokenIdCounter;\n    string public baseURI;\n    mapping(uint256 => string) private _hashIPFS;\n\n    constructor() ERC721(\"Token721\", \"FJA\") {\n        _grantRole(DEFAULT_ADMIN_ROLE, msg.sender);\n        _grantRole(PAUSER_ROLE, msg.sender);\n        _grantRole(MINTER_ROLE, msg.sender);\n        baseURI = \"https://ipfs.io/ipfs/\";\n    }\n\n\n\n    function mint(address _to, string[] memory _hashes) public onlyRole(MINTER_ROLE){\n\n        uint256 supply = totalSupply();\n\n        for (uint256 i = 0; i < _hashes.length; i++){\n            _safeMint(_to, supply + 1);\n            _hashIPFS[supply + 1] = _hashes[i];\n        }\n\n\n    }\n\n\n\n\n    function _baseURI() internal view virtual override returns (string memory) {\n        return baseURI;\n    }\n\n    \n    function pause() public onlyRole(PAUSER_ROLE) {\n        _pause();\n    }\n    \n\n    \n    function unpause() public onlyRole(PAUSER_ROLE) {\n        _unpause();\n    }\n    \n\n    \n    function safeMint(address to, string memory uri) public onlyRole(MINTER_ROLE) {\n        uint256 tokenId = _tokenIdCounter.current();\n        _tokenIdCounter.increment();\n        _safeMint(to, tokenId);\n        _setTokenURI(tokenId, uri);\n    }\n    \n    \n    function _beforeTokenTransfer(address from, address to, uint256 tokenId)\n        internal\n        whenNotPaused\n        override(ERC721, ERC721Enumerable)\n    {\n        super._beforeTokenTransfer(from, to, tokenId);\n    }\n    \n\n    // The following functions are overrides required by Solidity.\n\n    \n    function _burn(uint256 tokenId) internal override(ERC721, ERC721URIStorage) {\n        super._burn(tokenId);\n    }\n    \n\n    \n    function tokenURI(uint256 tokenId)\n        public\n        view\n        virtual\n        override(ERC721, ERC721URIStorage)\n        returns (string memory)\n    {\n        require(\n            _exists(tokenId),\n            \"ERC721Metadata: URI query for nonexistent token\"\n        );\n\n        string memory currentBaseURI = _baseURI();\n        return\n            (bytes(currentBaseURI).length > 0 &&\n                bytes(_hashIPFS[tokenId]).length > 0)\n            ? string(abi.encodePacked(currentBaseURI, _hashIPFS[tokenId]))\n            : \"\";\n        \n    }\n    \n\n    \n    function supportsInterface(bytes4 interfaceId)\n        public\n        view\n        override(ERC721, ERC721Enumerable, AccessControl)\n        returns (bool)\n    {\n        return super.supportsInterface(interfaceId);\n    }\n    \n}",
  "sourcePath": "/home/alvaradof/cursoSolidity/NFT/contracts/Token721.sol",
  "compiler": {
    "name": "solc",
    "version": "0.8.1+commit.df193b15.Emscripten.clang"
  },
  "schemaVersion": "3.4.4",
  "updatedAt": "2022-02-24T01:36:42.562Z",
  "networkType": "ethereum",
  "devdoc": {
    "kind": "dev",
    "methods": {
      "approve(address,uint256)": {
        "details": "See {IERC721-approve}."
      },
      "balanceOf(address)": {
        "details": "See {IERC721-balanceOf}."
      },
      "burn(uint256)": {
        "details": "Burns `tokenId`. See {ERC721-_burn}. Requirements: - The caller must own `tokenId` or be an approved operator."
      },
      "getApproved(uint256)": {
        "details": "See {IERC721-getApproved}."
      },
      "getRoleAdmin(bytes32)": {
        "details": "Returns the admin role that controls `role`. See {grantRole} and {revokeRole}. To change a role's admin, use {_setRoleAdmin}."
      },
      "grantRole(bytes32,address)": {
        "details": "Grants `role` to `account`. If `account` had not been already granted `role`, emits a {RoleGranted} event. Requirements: - the caller must have ``role``'s admin role."
      },
      "hasRole(bytes32,address)": {
        "details": "Returns `true` if `account` has been granted `role`."
      },
      "isApprovedForAll(address,address)": {
        "details": "See {IERC721-isApprovedForAll}."
      },
      "name()": {
        "details": "See {IERC721Metadata-name}."
      },
      "ownerOf(uint256)": {
        "details": "See {IERC721-ownerOf}."
      },
      "paused()": {
        "details": "Returns true if the contract is paused, and false otherwise."
      },
      "renounceRole(bytes32,address)": {
        "details": "Revokes `role` from the calling account. Roles are often managed via {grantRole} and {revokeRole}: this function's purpose is to provide a mechanism for accounts to lose their privileges if they are compromised (such as when a trusted device is misplaced). If the calling account had been revoked `role`, emits a {RoleRevoked} event. Requirements: - the caller must be `account`."
      },
      "revokeRole(bytes32,address)": {
        "details": "Revokes `role` from `account`. If `account` had been granted `role`, emits a {RoleRevoked} event. Requirements: - the caller must have ``role``'s admin role."
      },
      "safeTransferFrom(address,address,uint256)": {
        "details": "See {IERC721-safeTransferFrom}."
      },
      "safeTransferFrom(address,address,uint256,bytes)": {
        "details": "See {IERC721-safeTransferFrom}."
      },
      "setApprovalForAll(address,bool)": {
        "details": "See {IERC721-setApprovalForAll}."
      },
      "symbol()": {
        "details": "See {IERC721Metadata-symbol}."
      },
      "tokenByIndex(uint256)": {
        "details": "See {IERC721Enumerable-tokenByIndex}."
      },
      "tokenOfOwnerByIndex(address,uint256)": {
        "details": "See {IERC721Enumerable-tokenOfOwnerByIndex}."
      },
      "totalSupply()": {
        "details": "See {IERC721Enumerable-totalSupply}."
      },
      "transferFrom(address,address,uint256)": {
        "details": "See {IERC721-transferFrom}."
      }
    },
    "version": 1
  },
  "userdoc": {
    "kind": "user",
    "methods": {},
    "version": 1
  }
}