{
  "contractName": "Token721",
  "abi": [
    {
      "inputs": [],
      "stateMutability": "nonpayable",
      "type": "constructor"
    },
    {
      "anonymous": false,
      "inputs": [
        {
          "indexed": true,
          "internalType": "address",
          "name": "owner",
          "type": "address"
        },
        {
          "indexed": true,
          "internalType": "address",
          "name": "approved",
          "type": "address"
        },
        {
          "indexed": true,
          "internalType": "uint256",
          "name": "tokenId",
          "type": "uint256"
        }
      ],
      "name": "Approval",
      "type": "event"
    },
    {
      "anonymous": false,
      "inputs": [
        {
          "indexed": true,
          "internalType": "address",
          "name": "owner",
          "type": "address"
        },
        {
          "indexed": true,
          "internalType": "address",
          "name": "operator",
          "type": "address"
        },
        {
          "indexed": false,
          "internalType": "bool",
          "name": "approved",
          "type": "bool"
        }
      ],
      "name": "ApprovalForAll",
      "type": "event"
    },
    {
      "anonymous": false,
      "inputs": [
        {
          "indexed": false,
          "internalType": "address",
          "name": "account",
          "type": "address"
        }
      ],
      "name": "Paused",
      "type": "event"
    },
    {
      "anonymous": false,
      "inputs": [
        {
          "indexed": true,
          "internalType": "bytes32",
          "name": "role",
          "type": "bytes32"
        },
        {
          "indexed": true,
          "internalType": "bytes32",
          "name": "previousAdminRole",
          "type": "bytes32"
        },
        {
          "indexed": true,
          "internalType": "bytes32",
          "name": "newAdminRole",
          "type": "bytes32"
        }
      ],
      "name": "RoleAdminChanged",
      "type": "event"
    },
    {
      "anonymous": false,
      "inputs": [
        {
          "indexed": true,
          "internalType": "bytes32",
          "name": "role",
          "type": "bytes32"
        },
        {
          "indexed": true,
          "internalType": "address",
          "name": "account",
          "type": "address"
        },
        {
          "indexed": true,
          "internalType": "address",
          "name": "sender",
          "type": "address"
        }
      ],
      "name": "RoleGranted",
      "type": "event"
    },
    {
      "anonymous": false,
      "inputs": [
        {
          "indexed": true,
          "internalType": "bytes32",
          "name": "role",
          "type": "bytes32"
        },
        {
          "indexed": true,
          "internalType": "address",
          "name": "account",
          "type": "address"
        },
        {
          "indexed": true,
          "internalType": "address",
          "name": "sender",
          "type": "address"
        }
      ],
      "name": "RoleRevoked",
      "type": "event"
    },
    {
      "anonymous": false,
      "inputs": [
        {
          "indexed": true,
          "internalType": "address",
          "name": "from",
          "type": "address"
        },
        {
          "indexed": true,
          "internalType": "address",
          "name": "to",
          "type": "address"
        },
        {
          "indexed": true,
          "internalType": "uint256",
          "name": "tokenId",
          "type": "uint256"
        }
      ],
      "name": "Transfer",
      "type": "event"
    },
    {
      "anonymous": false,
      "inputs": [
        {
          "indexed": false,
          "internalType": "address",
          "name": "account",
          "type": "address"
        }
      ],
      "name": "Unpaused",
      "type": "event"
    },
    {
      "inputs": [],
      "name": "DEFAULT_ADMIN_ROLE",
      "outputs": [
        {
          "internalType": "bytes32",
          "name": "",
          "type": "bytes32"
        }
      ],
      "stateMutability": "view",
      "type": "function",
      "constant": true
    },
    {
      "inputs": [],
      "name": "MAX_MINT_SUPPLY",
      "outputs": [
        {
          "internalType": "uint256",
          "name": "",
          "type": "uint256"
        }
      ],
      "stateMutability": "view",
      "type": "function",
      "constant": true
    },
    {
      "inputs": [],
      "name": "MINTER_ROLE",
      "outputs": [
        {
          "internalType": "bytes32",
          "name": "",
          "type": "bytes32"
        }
      ],
      "stateMutability": "view",
      "type": "function",
      "constant": true
    },
    {
      "inputs": [],
      "name": "PAUSER_ROLE",
      "outputs": [
        {
          "internalType": "bytes32",
          "name": "",
          "type": "bytes32"
        }
      ],
      "stateMutability": "view",
      "type": "function",
      "constant": true
    },
    {
      "inputs": [],
      "name": "WHITE_LIST_ROLE",
      "outputs": [
        {
          "internalType": "bytes32",
          "name": "",
          "type": "bytes32"
        }
      ],
      "stateMutability": "view",
      "type": "function",
      "constant": true
    },
    {
      "inputs": [
        {
          "internalType": "address",
          "name": "to",
          "type": "address"
        },
        {
          "internalType": "uint256",
          "name": "tokenId",
          "type": "uint256"
        }
      ],
      "name": "approve",
      "outputs": [],
      "stateMutability": "nonpayable",
      "type": "function"
    },
    {
      "inputs": [
        {
          "internalType": "address",
          "name": "owner",
          "type": "address"
        }
      ],
      "name": "balanceOf",
      "outputs": [
        {
          "internalType": "uint256",
          "name": "",
          "type": "uint256"
        }
      ],
      "stateMutability": "view",
      "type": "function",
      "constant": true
    },
    {
      "inputs": [],
      "name": "baseURI",
      "outputs": [
        {
          "internalType": "string",
          "name": "",
          "type": "string"
        }
      ],
      "stateMutability": "view",
      "type": "function",
      "constant": true
    },
    {
      "inputs": [
        {
          "internalType": "uint256",
          "name": "tokenId",
          "type": "uint256"
        }
      ],
      "name": "burn",
      "outputs": [],
      "stateMutability": "nonpayable",
      "type": "function"
    },
    {
      "inputs": [
        {
          "internalType": "uint256",
          "name": "tokenId",
          "type": "uint256"
        }
      ],
      "name": "getApproved",
      "outputs": [
        {
          "internalType": "address",
          "name": "",
          "type": "address"
        }
      ],
      "stateMutability": "view",
      "type": "function",
      "constant": true
    },
    {
      "inputs": [
        {
          "internalType": "bytes32",
          "name": "role",
          "type": "bytes32"
        }
      ],
      "name": "getRoleAdmin",
      "outputs": [
        {
          "internalType": "bytes32",
          "name": "",
          "type": "bytes32"
        }
      ],
      "stateMutability": "view",
      "type": "function",
      "constant": true
    },
    {
      "inputs": [
        {
          "internalType": "bytes32",
          "name": "role",
          "type": "bytes32"
        },
        {
          "internalType": "address",
          "name": "account",
          "type": "address"
        }
      ],
      "name": "grantRole",
      "outputs": [],
      "stateMutability": "nonpayable",
      "type": "function"
    },
    {
      "inputs": [
        {
          "internalType": "bytes32",
          "name": "role",
          "type": "bytes32"
        },
        {
          "internalType": "address",
          "name": "account",
          "type": "address"
        }
      ],
      "name": "hasRole",
      "outputs": [
        {
          "internalType": "bool",
          "name": "",
          "type": "bool"
        }
      ],
      "stateMutability": "view",
      "type": "function",
      "constant": true
    },
    {
      "inputs": [
        {
          "internalType": "address",
          "name": "owner",
          "type": "address"
        },
        {
          "internalType": "address",
          "name": "operator",
          "type": "address"
        }
      ],
      "name": "isApprovedForAll",
      "outputs": [
        {
          "internalType": "bool",
          "name": "",
          "type": "bool"
        }
      ],
      "stateMutability": "view",
      "type": "function",
      "constant": true
    },
    {
      "inputs": [],
      "name": "mintState",
      "outputs": [
        {
          "internalType": "bool",
          "name": "",
          "type": "bool"
        }
      ],
      "stateMutability": "view",
      "type": "function",
      "constant": true
    },
    {
      "inputs": [],
      "name": "name",
      "outputs": [
        {
          "internalType": "string",
          "name": "",
          "type": "string"
        }
      ],
      "stateMutability": "view",
      "type": "function",
      "constant": true
    },
    {
      "inputs": [
        {
          "internalType": "uint256",
          "name": "tokenId",
          "type": "uint256"
        }
      ],
      "name": "ownerOf",
      "outputs": [
        {
          "internalType": "address",
          "name": "",
          "type": "address"
        }
      ],
      "stateMutability": "view",
      "type": "function",
      "constant": true
    },
    {
      "inputs": [],
      "name": "paused",
      "outputs": [
        {
          "internalType": "bool",
          "name": "",
          "type": "bool"
        }
      ],
      "stateMutability": "view",
      "type": "function",
      "constant": true
    },
    {
      "inputs": [
        {
          "internalType": "bytes32",
          "name": "role",
          "type": "bytes32"
        },
        {
          "internalType": "address",
          "name": "account",
          "type": "address"
        }
      ],
      "name": "renounceRole",
      "outputs": [],
      "stateMutability": "nonpayable",
      "type": "function"
    },
    {
      "inputs": [],
      "name": "revealed",
      "outputs": [
        {
          "internalType": "bool",
          "name": "",
          "type": "bool"
        }
      ],
      "stateMutability": "view",
      "type": "function",
      "constant": true
    },
    {
      "inputs": [
        {
          "internalType": "bytes32",
          "name": "role",
          "type": "bytes32"
        },
        {
          "internalType": "address",
          "name": "account",
          "type": "address"
        }
      ],
      "name": "revokeRole",
      "outputs": [],
      "stateMutability": "nonpayable",
      "type": "function"
    },
    {
      "inputs": [
        {
          "internalType": "address",
          "name": "from",
          "type": "address"
        },
        {
          "internalType": "address",
          "name": "to",
          "type": "address"
        },
        {
          "internalType": "uint256",
          "name": "tokenId",
          "type": "uint256"
        }
      ],
      "name": "safeTransferFrom",
      "outputs": [],
      "stateMutability": "nonpayable",
      "type": "function"
    },
    {
      "inputs": [
        {
          "internalType": "address",
          "name": "from",
          "type": "address"
        },
        {
          "internalType": "address",
          "name": "to",
          "type": "address"
        },
        {
          "internalType": "uint256",
          "name": "tokenId",
          "type": "uint256"
        },
        {
          "internalType": "bytes",
          "name": "_data",
          "type": "bytes"
        }
      ],
      "name": "safeTransferFrom",
      "outputs": [],
      "stateMutability": "nonpayable",
      "type": "function"
    },
    {
      "inputs": [
        {
          "internalType": "address",
          "name": "operator",
          "type": "address"
        },
        {
          "internalType": "bool",
          "name": "approved",
          "type": "bool"
        }
      ],
      "name": "setApprovalForAll",
      "outputs": [],
      "stateMutability": "nonpayable",
      "type": "function"
    },
    {
      "inputs": [],
      "name": "symbol",
      "outputs": [
        {
          "internalType": "string",
          "name": "",
          "type": "string"
        }
      ],
      "stateMutability": "view",
      "type": "function",
      "constant": true
    },
    {
      "inputs": [
        {
          "internalType": "uint256",
          "name": "index",
          "type": "uint256"
        }
      ],
      "name": "tokenByIndex",
      "outputs": [
        {
          "internalType": "uint256",
          "name": "",
          "type": "uint256"
        }
      ],
      "stateMutability": "view",
      "type": "function",
      "constant": true
    },
    {
      "inputs": [
        {
          "internalType": "address",
          "name": "owner",
          "type": "address"
        },
        {
          "internalType": "uint256",
          "name": "index",
          "type": "uint256"
        }
      ],
      "name": "tokenOfOwnerByIndex",
      "outputs": [
        {
          "internalType": "uint256",
          "name": "",
          "type": "uint256"
        }
      ],
      "stateMutability": "view",
      "type": "function",
      "constant": true
    },
    {
      "inputs": [],
      "name": "totalSupply",
      "outputs": [
        {
          "internalType": "uint256",
          "name": "",
          "type": "uint256"
        }
      ],
      "stateMutability": "view",
      "type": "function",
      "constant": true
    },
    {
      "inputs": [
        {
          "internalType": "address",
          "name": "from",
          "type": "address"
        },
        {
          "internalType": "address",
          "name": "to",
          "type": "address"
        },
        {
          "internalType": "uint256",
          "name": "tokenId",
          "type": "uint256"
        }
      ],
      "name": "transferFrom",
      "outputs": [],
      "stateMutability": "nonpayable",
      "type": "function"
    },
    {
      "inputs": [
        {
          "internalType": "address",
          "name": "_vip",
          "type": "address"
        }
      ],
      "name": "addWhiteList",
      "outputs": [],
      "stateMutability": "nonpayable",
      "type": "function"
    },
    {
      "inputs": [],
      "name": "revelateNFT",
      "outputs": [],
      "stateMutability": "nonpayable",
      "type": "function"
    },
    {
      "inputs": [],
      "name": "startMint",
      "outputs": [],
      "stateMutability": "nonpayable",
      "type": "function"
    },
    {
      "inputs": [],
      "name": "pause",
      "outputs": [],
      "stateMutability": "nonpayable",
      "type": "function"
    },
    {
      "inputs": [],
      "name": "unpause",
      "outputs": [],
      "stateMutability": "nonpayable",
      "type": "function"
    },
    {
      "inputs": [
        {
          "internalType": "uint256",
          "name": "tokenId",
          "type": "uint256"
        }
      ],
      "name": "burn_",
      "outputs": [],
      "stateMutability": "nonpayable",
      "type": "function"
    },
    {
      "inputs": [
        {
          "internalType": "string[]",
          "name": "_hashes",
          "type": "string[]"
        }
      ],
      "name": "mint",
      "outputs": [],
      "stateMutability": "payable",
      "type": "function",
      "payable": true
    },
    {
      "inputs": [
        {
          "internalType": "uint256",
          "name": "tokenId",
          "type": "uint256"
        }
      ],
      "name": "tokenURI",
      "outputs": [
        {
          "internalType": "string",
          "name": "",
          "type": "string"
        }
      ],
      "stateMutability": "view",
      "type": "function",
      "constant": true
    },
    {
      "inputs": [
        {
          "internalType": "bytes4",
          "name": "interfaceId",
          "type": "bytes4"
        }
      ],
      "name": "supportsInterface",
      "outputs": [
        {
          "internalType": "bool",
          "name": "",
          "type": "bool"
        }
      ],
      "stateMutability": "view",
      "type": "function",
      "constant": true
    }
  ],
  "bytecode": "0x60806040526000600e60006101000a81548160ff0219169083151502179055506000600e60016101000a81548160ff0219169083151502179055503480156200004757600080fd5b506040518060400160405280600881526020017f546f6b656e3732310000000000000000000000000000000000000000000000008152506040518060400160405280600381526020017f464a4100000000000000000000000000000000000000000000000000000000008152508160009080519060200190620000cc92919062000335565b508060019080519060200190620000e592919062000335565b5050506000600b60006101000a81548160ff021916908315150217905550620001186000801b33620001d060201b60201c565b6200014a7f65d7a28e3265b37a6474929f336521b332c1681b933f6cb9f3376673440d862a33620001d060201b60201c565b6200017c7f9f2df0fed2c77648de5860a4cc508cd0818c85b8b8a1ab4ceeef8d981c8956a633620001d060201b60201c565b6040518060400160405280601581526020017f68747470733a2f2f697066732e696f2f697066732f0000000000000000000000815250600f9080519060200190620001c992919062000335565b506200044a565b620001e28282620002c260201b60201c565b620002be576001600c600084815260200190815260200160002060000160008373ffffffffffffffffffffffffffffffffffffffff1673ffffffffffffffffffffffffffffffffffffffff16815260200190815260200160002060006101000a81548160ff021916908315150217905550620002636200032d60201b60201c565b73ffffffffffffffffffffffffffffffffffffffff168173ffffffffffffffffffffffffffffffffffffffff16837f2f8788117e7eff1d82e926ec794901d17c78024a50270940304540a733656f0d60405160405180910390a45b5050565b6000600c600084815260200190815260200160002060000160008373ffffffffffffffffffffffffffffffffffffffff1673ffffffffffffffffffffffffffffffffffffffff16815260200190815260200160002060009054906101000a900460ff16905092915050565b600033905090565b8280546200034390620003e5565b90600052602060002090601f016020900481019282620003675760008555620003b3565b82601f106200038257805160ff1916838001178555620003b3565b82800160010185558215620003b3579182015b82811115620003b257825182559160200191906001019062000395565b5b509050620003c29190620003c6565b5090565b5b80821115620003e1576000816000905550600101620003c7565b5090565b60006002820490506001821680620003fe57607f821691505b602082108114156200041557620004146200041b565b5b50919050565b7f4e487b7100000000000000000000000000000000000000000000000000000000600052602260045260246000fd5b614da1806200045a6000396000f3fe6080604052600436106102255760003560e01c80636c0360eb11610123578063c051e38a116100ab578063d547741f1161006f578063d547741f146107fa578063e2e8766f14610823578063e63ab1e91461083a578063e7cd4a0414610865578063e985e9c51461088e57610225565b8063c051e38a14610713578063c50a557c1461073e578063c87b56dd14610769578063d1615b96146107a6578063d5391393146107cf57610225565b806395d89b41116100f257806395d89b4114610640578063a217fddf1461066b578063a22cb46514610696578063a329e1db146106bf578063b88d4fde146106ea57610225565b80636c0360eb1461058457806370a08231146105af5780638456cb59146105ec57806391d148541461060357610225565b80632f745c59116101b15780634f6ccce7116101755780634f6ccce71461049857806351830227146104d55780635768f271146105005780635c975abb1461051c5780636352211e1461054757610225565b80632f745c59146103c957806336568abe146104065780633f4ba83a1461042f57806342842e0e1461044657806342966c681461046f57610225565b806318160ddd116101f857806318160ddd146102f857806323b872dd14610323578063248a9ca31461034c5780632be09561146103895780632f2ff15d146103a057610225565b806301ffc9a71461022a57806306fdde0314610267578063081812fc14610292578063095ea7b3146102cf575b600080fd5b34801561023657600080fd5b50610251600480360381019061024c91906137ca565b6108cb565b60405161025e9190613e19565b60405180910390f35b34801561027357600080fd5b5061027c6108dd565b6040516102899190613e4f565b60405180910390f35b34801561029e57600080fd5b506102b960048036038101906102b4919061381c565b61096f565b6040516102c69190613db2565b60405180910390f35b3480156102db57600080fd5b506102f660048036038101906102f191906136e8565b6109f4565b005b34801561030457600080fd5b5061030d610b0c565b60405161031a9190614191565b60405180910390f35b34801561032f57600080fd5b5061034a600480360381019061034591906135e2565b610b19565b005b34801561035857600080fd5b50610373600480360381019061036e9190613765565b610b79565b6040516103809190613e34565b60405180910390f35b34801561039557600080fd5b5061039e610b99565b005b3480156103ac57600080fd5b506103c760048036038101906103c2919061378e565b610bcc565b005b3480156103d557600080fd5b506103f060048036038101906103eb91906136e8565b610bf5565b6040516103fd9190614191565b60405180910390f35b34801561041257600080fd5b5061042d6004803603810190610428919061378e565b610c9a565b005b34801561043b57600080fd5b50610444610d1d565b005b34801561045257600080fd5b5061046d600480360381019061046891906135e2565b610d5a565b005b34801561047b57600080fd5b506104966004803603810190610491919061381c565b610d7a565b005b3480156104a457600080fd5b506104bf60048036038101906104ba919061381c565b610dd6565b6040516104cc9190614191565b60405180910390f35b3480156104e157600080fd5b506104ea610e6d565b6040516104f79190613e19565b60405180910390f35b61051a60048036038101906105159190613724565b610e80565b005b34801561052857600080fd5b50610531611126565b60405161053e9190613e19565b60405180910390f35b34801561055357600080fd5b5061056e6004803603810190610569919061381c565b61113d565b60405161057b9190613db2565b60405180910390f35b34801561059057600080fd5b506105996111ef565b6040516105a69190613e4f565b60405180910390f35b3480156105bb57600080fd5b506105d660048036038101906105d1919061357d565b61127d565b6040516105e39190614191565b60405180910390f35b3480156105f857600080fd5b50610601611335565b005b34801561060f57600080fd5b5061062a6004803603810190610625919061378e565b611372565b6040516106379190613e19565b60405180910390f35b34801561064c57600080fd5b506106556113dd565b6040516106629190613e4f565b60405180910390f35b34801561067757600080fd5b5061068061146f565b60405161068d9190613e34565b60405180910390f35b3480156106a257600080fd5b506106bd60048036038101906106b891906136ac565b611476565b005b3480156106cb57600080fd5b506106d461148c565b6040516106e19190614191565b60405180910390f35b3480156106f657600080fd5b50610711600480360381019061070c9190613631565b611491565b005b34801561071f57600080fd5b506107286114f3565b6040516107359190613e19565b60405180910390f35b34801561074a57600080fd5b50610753611506565b6040516107609190613e34565b60405180910390f35b34801561077557600080fd5b50610790600480360381019061078b919061381c565b61152a565b60405161079d9190613e4f565b60405180910390f35b3480156107b257600080fd5b506107cd60048036038101906107c8919061381c565b611644565b005b3480156107db57600080fd5b506107e4611650565b6040516107f19190613e34565b60405180910390f35b34801561080657600080fd5b50610821600480360381019061081c919061378e565b611674565b005b34801561082f57600080fd5b5061083861169d565b005b34801561084657600080fd5b5061084f6116d0565b60405161085c9190613e34565b60405180910390f35b34801561087157600080fd5b5061088c6004803603810190610887919061357d565b6116f4565b005b34801561089a57600080fd5b506108b560048036038101906108b091906135a6565b611737565b6040516108c29190613e19565b60405180910390f35b60006108d6826117cb565b9050919050565b6060600080546108ec90614485565b80601f016020809104026020016040519081016040528092919081815260200182805461091890614485565b80156109655780601f1061093a57610100808354040283529160200191610965565b820191906000526020600020905b81548152906001019060200180831161094857829003601f168201915b5050505050905090565b600061097a82611845565b6109b9576040517f08c379a00000000000000000000000000000000000000000000000000000000081526004016109b090614071565b60405180910390fd5b6004600083815260200190815260200160002060009054906101000a900473ffffffffffffffffffffffffffffffffffffffff169050919050565b60006109ff8261113d565b90508073ffffffffffffffffffffffffffffffffffffffff168373ffffffffffffffffffffffffffffffffffffffff161415610a70576040517f08c379a0000000000000000000000000000000000000000000000000000000008152600401610a67906140b1565b60405180910390fd5b8073ffffffffffffffffffffffffffffffffffffffff16610a8f6118b1565b73ffffffffffffffffffffffffffffffffffffffff161480610abe5750610abd81610ab86118b1565b611737565b5b610afd576040517f08c379a0000000000000000000000000000000000000000000000000000000008152600401610af490613ff1565b60405180910390fd5b610b0783836118b9565b505050565b6000600880549050905090565b610b2a610b246118b1565b82611972565b610b69576040517f08c379a0000000000000000000000000000000000000000000000000000000008152600401610b60906140d1565b60405180910390fd5b610b74838383611a50565b505050565b6000600c6000838152602001908152602001600020600101549050919050565b6000801b610bae81610ba96118b1565b611cb7565b6001600e60006101000a81548160ff02191690831515021790555050565b610bd582610b79565b610be681610be16118b1565b611cb7565b610bf08383611d54565b505050565b6000610c008361127d565b8210610c41576040517f08c379a0000000000000000000000000000000000000000000000000000000008152600401610c3890613eb1565b60405180910390fd5b600660008473ffffffffffffffffffffffffffffffffffffffff1673ffffffffffffffffffffffffffffffffffffffff168152602001908152602001600020600083815260200190815260200160002054905092915050565b610ca26118b1565b73ffffffffffffffffffffffffffffffffffffffff168173ffffffffffffffffffffffffffffffffffffffff1614610d0f576040517f08c379a0000000000000000000000000000000000000000000000000000000008152600401610d0690614171565b60405180910390fd5b610d198282611e35565b5050565b7f65d7a28e3265b37a6474929f336521b332c1681b933f6cb9f3376673440d862a610d4f81610d4a6118b1565b611cb7565b610d57611f17565b50565b610d7583838360405180602001604052806000815250611491565b505050565b610d8b610d856118b1565b82611972565b610dca576040517f08c379a0000000000000000000000000000000000000000000000000000000008152600401610dc190614151565b60405180910390fd5b610dd381611fb9565b50565b6000610de0610b0c565b8210610e21576040517f08c379a0000000000000000000000000000000000000000000000000000000008152600401610e18906140f1565b60405180910390fd5b60088281548110610e5b577f4e487b7100000000000000000000000000000000000000000000000000000000600052603260045260246000fd5b90600052602060002001549050919050565b600e60019054906101000a900460ff1681565b7f9f2df0fed2c77648de5860a4cc508cd0818c85b8b8a1ab4ceeef8d981c8956a6610eb281610ead6118b1565b611cb7565b610eba611126565b15610ec457600080fd5b6004610ed0600d612078565b108015610ef35750610ee2600d612078565b6004610eee9190614367565b825111155b610f32576040517f08c379a0000000000000000000000000000000000000000000000000000000008152600401610f2990614131565b60405180910390fd5b60011515600e60009054906101000a900460ff1615151480610f7a5750610f797f86024e89529ee90561d266fe70772355cdf7be9c9e97e3ac6b5d90ddbc85336533611372565b5b610fb9576040517f08c379a0000000000000000000000000000000000000000000000000000000008152600401610fb090613f31565b60405180910390fd5b662386f26fc10000341015611003576040517f08c379a0000000000000000000000000000000000000000000000000000000008152600401610ffa90614111565b60405180910390fd5b600061100d610b0c565b905060005b8351811015611120576110313360018461102c91906142b7565b612086565b83818151811061106a577f4e487b7100000000000000000000000000000000000000000000000000000000600052603260045260246000fd5b60200260200101516010600060018561108391906142b7565b815260200190815260200160002090805190602001906110a49291906132c5565b5033601160006001856110b791906142b7565b815260200190815260200160002060006101000a81548173ffffffffffffffffffffffffffffffffffffffff021916908373ffffffffffffffffffffffffffffffffffffffff16021790555061110d600d6120a4565b8080611118906144e8565b915050611012565b50505050565b6000600b60009054906101000a900460ff16905090565b6000806002600084815260200190815260200160002060009054906101000a900473ffffffffffffffffffffffffffffffffffffffff169050600073ffffffffffffffffffffffffffffffffffffffff168173ffffffffffffffffffffffffffffffffffffffff1614156111e6576040517f08c379a00000000000000000000000000000000000000000000000000000000081526004016111dd90614031565b60405180910390fd5b80915050919050565b600f80546111fc90614485565b80601f016020809104026020016040519081016040528092919081815260200182805461122890614485565b80156112755780601f1061124a57610100808354040283529160200191611275565b820191906000526020600020905b81548152906001019060200180831161125857829003601f168201915b505050505081565b60008073ffffffffffffffffffffffffffffffffffffffff168273ffffffffffffffffffffffffffffffffffffffff1614156112ee576040517f08c379a00000000000000000000000000000000000000000000000000000000081526004016112e590614011565b60405180910390fd5b600360008373ffffffffffffffffffffffffffffffffffffffff1673ffffffffffffffffffffffffffffffffffffffff168152602001908152602001600020549050919050565b7f65d7a28e3265b37a6474929f336521b332c1681b933f6cb9f3376673440d862a611367816113626118b1565b611cb7565b61136f6120ba565b50565b6000600c600084815260200190815260200160002060000160008373ffffffffffffffffffffffffffffffffffffffff1673ffffffffffffffffffffffffffffffffffffffff16815260200190815260200160002060009054906101000a900460ff16905092915050565b6060600180546113ec90614485565b80601f016020809104026020016040519081016040528092919081815260200182805461141890614485565b80156114655780601f1061143a57610100808354040283529160200191611465565b820191906000526020600020905b81548152906001019060200180831161144857829003601f168201915b5050505050905090565b6000801b81565b6114886114816118b1565b838361215d565b5050565b600481565b6114a261149c6118b1565b83611972565b6114e1576040517f08c379a00000000000000000000000000000000000000000000000000000000081526004016114d8906140d1565b60405180910390fd5b6114ed848484846122ca565b50505050565b600e60009054906101000a900460ff1681565b7f86024e89529ee90561d266fe70772355cdf7be9c9e97e3ac6b5d90ddbc85336581565b606061153582611845565b611574576040517f08c379a000000000000000000000000000000000000000000000000000000000815260040161156b90614091565b60405180910390fd5b600061157e612326565b905060001515600e60019054906101000a900460ff16151514156115bd57604051806080016040528060508152602001614d1c6050913991505061163f565b600081511180156115ed575060006010600085815260200190815260200160002080546115e990614485565b9050115b611606576040518060200160405280600081525061163b565b806010600085815260200190815260200160002060405160200161162b929190613d54565b6040516020818303038152906040525b9150505b919050565b61164d81611fb9565b50565b7f9f2df0fed2c77648de5860a4cc508cd0818c85b8b8a1ab4ceeef8d981c8956a681565b61167d82610b79565b61168e816116896118b1565b611cb7565b6116988383611e35565b505050565b6000801b6116b2816116ad6118b1565b611cb7565b6001600e60016101000a81548160ff02191690831515021790555050565b7f65d7a28e3265b37a6474929f336521b332c1681b933f6cb9f3376673440d862a81565b6000801b611709816117046118b1565b611cb7565b6117337f86024e89529ee90561d266fe70772355cdf7be9c9e97e3ac6b5d90ddbc85336583611d54565b5050565b6000600560008473ffffffffffffffffffffffffffffffffffffffff1673ffffffffffffffffffffffffffffffffffffffff16815260200190815260200160002060008373ffffffffffffffffffffffffffffffffffffffff1673ffffffffffffffffffffffffffffffffffffffff16815260200190815260200160002060009054906101000a900460ff16905092915050565b60007f7965db0b000000000000000000000000000000000000000000000000000000007bffffffffffffffffffffffffffffffffffffffffffffffffffffffff1916827bffffffffffffffffffffffffffffffffffffffffffffffffffffffff1916148061183e575061183d826123b8565b5b9050919050565b60008073ffffffffffffffffffffffffffffffffffffffff166002600084815260200190815260200160002060009054906101000a900473ffffffffffffffffffffffffffffffffffffffff1673ffffffffffffffffffffffffffffffffffffffff1614159050919050565b600033905090565b816004600083815260200190815260200160002060006101000a81548173ffffffffffffffffffffffffffffffffffffffff021916908373ffffffffffffffffffffffffffffffffffffffff160217905550808273ffffffffffffffffffffffffffffffffffffffff1661192c8361113d565b73ffffffffffffffffffffffffffffffffffffffff167f8c5be1e5ebec7d5bd14f71427d1e84f3dd0314c0f7b2291e5b200ac8c7c3b92560405160405180910390a45050565b600061197d82611845565b6119bc576040517f08c379a00000000000000000000000000000000000000000000000000000000081526004016119b390613fb1565b60405180910390fd5b60006119c78361113d565b90508073ffffffffffffffffffffffffffffffffffffffff168473ffffffffffffffffffffffffffffffffffffffff161480611a3657508373ffffffffffffffffffffffffffffffffffffffff16611a1e8461096f565b73ffffffffffffffffffffffffffffffffffffffff16145b80611a475750611a468185611737565b5b91505092915050565b8273ffffffffffffffffffffffffffffffffffffffff16611a708261113d565b73ffffffffffffffffffffffffffffffffffffffff1614611ac6576040517f08c379a0000000000000000000000000000000000000000000000000000000008152600401611abd90613ef1565b60405180910390fd5b600073ffffffffffffffffffffffffffffffffffffffff168273ffffffffffffffffffffffffffffffffffffffff161415611b36576040517f08c379a0000000000000000000000000000000000000000000000000000000008152600401611b2d90613f71565b60405180910390fd5b611b41838383612432565b611b4c6000826118b9565b6001600360008573ffffffffffffffffffffffffffffffffffffffff1673ffffffffffffffffffffffffffffffffffffffff1681526020019081526020016000206000828254611b9c9190614367565b925050819055506001600360008473ffffffffffffffffffffffffffffffffffffffff1673ffffffffffffffffffffffffffffffffffffffff1681526020019081526020016000206000828254611bf391906142b7565b92505081905550816002600083815260200190815260200160002060006101000a81548173ffffffffffffffffffffffffffffffffffffffff021916908373ffffffffffffffffffffffffffffffffffffffff160217905550808273ffffffffffffffffffffffffffffffffffffffff168473ffffffffffffffffffffffffffffffffffffffff167fddf252ad1be2c89b69c2b068fc378daa952ba7f163c4a11628f55a4df523b3ef60405160405180910390a4611cb283838361248a565b505050565b611cc18282611372565b611d5057611ce68173ffffffffffffffffffffffffffffffffffffffff16601461248f565b611cf48360001c602061248f565b604051602001611d05929190613d78565b6040516020818303038152906040526040517f08c379a0000000000000000000000000000000000000000000000000000000008152600401611d479190613e4f565b60405180910390fd5b5050565b611d5e8282611372565b611e31576001600c600084815260200190815260200160002060000160008373ffffffffffffffffffffffffffffffffffffffff1673ffffffffffffffffffffffffffffffffffffffff16815260200190815260200160002060006101000a81548160ff021916908315150217905550611dd66118b1565b73ffffffffffffffffffffffffffffffffffffffff168173ffffffffffffffffffffffffffffffffffffffff16837f2f8788117e7eff1d82e926ec794901d17c78024a50270940304540a733656f0d60405160405180910390a45b5050565b611e3f8282611372565b15611f13576000600c600084815260200190815260200160002060000160008373ffffffffffffffffffffffffffffffffffffffff1673ffffffffffffffffffffffffffffffffffffffff16815260200190815260200160002060006101000a81548160ff021916908315150217905550611eb86118b1565b73ffffffffffffffffffffffffffffffffffffffff168173ffffffffffffffffffffffffffffffffffffffff16837ff6391f5c32d9c69d2a47ea670b442974b53935d1edc7fd64eb21e047a839171b60405160405180910390a45b5050565b611f1f611126565b611f5e576040517f08c379a0000000000000000000000000000000000000000000000000000000008152600401611f5590613e91565b60405180910390fd5b6000600b60006101000a81548160ff0219169083151502179055507f5db9ee0a495bf2e6ff9c91a7834c1ba4fdd244a5e8aa4e537bd38aeae4b073aa611fa26118b1565b604051611faf9190613db2565b60405180910390a1565b611fc1611126565b15611fcb57600080fd5b3373ffffffffffffffffffffffffffffffffffffffff166011600083815260200190815260200160002060009054906101000a900473ffffffffffffffffffffffffffffffffffffffff1673ffffffffffffffffffffffffffffffffffffffff161461206c576040517f08c379a000000000000000000000000000000000000000000000000000000000815260040161206390613f51565b60405180910390fd5b61207581612789565b50565b600081600001549050919050565b6120a08282604051806020016040528060008152506127dc565b5050565b6001816000016000828254019250508190555050565b6120c2611126565b15612102576040517f08c379a00000000000000000000000000000000000000000000000000000000081526004016120f990613fd1565b60405180910390fd5b6001600b60006101000a81548160ff0219169083151502179055507f62e78cea01bee320cd4e420270b5ea74000d11b0c9f74754ebdbfc544b05a2586121466118b1565b6040516121539190613db2565b60405180910390a1565b8173ffffffffffffffffffffffffffffffffffffffff168373ffffffffffffffffffffffffffffffffffffffff1614156121cc576040517f08c379a00000000000000000000000000000000000000000000000000000000081526004016121c390613f91565b60405180910390fd5b80600560008573ffffffffffffffffffffffffffffffffffffffff1673ffffffffffffffffffffffffffffffffffffffff16815260200190815260200160002060008473ffffffffffffffffffffffffffffffffffffffff1673ffffffffffffffffffffffffffffffffffffffff16815260200190815260200160002060006101000a81548160ff0219169083151502179055508173ffffffffffffffffffffffffffffffffffffffff168373ffffffffffffffffffffffffffffffffffffffff167f17307eab39ab6107e8899845ad3d59bd9653f200f220920489ca2b5937696c31836040516122bd9190613e19565b60405180910390a3505050565b6122d5848484611a50565b6122e184848484612837565b612320576040517f08c379a000000000000000000000000000000000000000000000000000000000815260040161231790613ed1565b60405180910390fd5b50505050565b6060600f805461233590614485565b80601f016020809104026020016040519081016040528092919081815260200182805461236190614485565b80156123ae5780601f10612383576101008083540402835291602001916123ae565b820191906000526020600020905b81548152906001019060200180831161239157829003601f168201915b5050505050905090565b60007f780e9d63000000000000000000000000000000000000000000000000000000007bffffffffffffffffffffffffffffffffffffffffffffffffffffffff1916827bffffffffffffffffffffffffffffffffffffffffffffffffffffffff1916148061242b575061242a826129ce565b5b9050919050565b61243a611126565b1561247a576040517f08c379a000000000000000000000000000000000000000000000000000000000815260040161247190613fd1565b60405180910390fd5b612485838383612ab0565b505050565b505050565b6060600060028360026124a2919061430d565b6124ac91906142b7565b67ffffffffffffffff8111156124eb577f4e487b7100000000000000000000000000000000000000000000000000000000600052604160045260246000fd5b6040519080825280601f01601f19166020018201604052801561251d5781602001600182028036833780820191505090505b5090507f30000000000000000000000000000000000000000000000000000000000000008160008151811061257b577f4e487b7100000000000000000000000000000000000000000000000000000000600052603260045260246000fd5b60200101907effffffffffffffffffffffffffffffffffffffffffffffffffffffffffffff1916908160001a9053507f780000000000000000000000000000000000000000000000000000000000000081600181518110612605577f4e487b7100000000000000000000000000000000000000000000000000000000600052603260045260246000fd5b60200101907effffffffffffffffffffffffffffffffffffffffffffffffffffffffffffff1916908160001a90535060006001846002612645919061430d565b61264f91906142b7565b90505b600181111561273b577f3031323334353637383961626364656600000000000000000000000000000000600f8616601081106126b7577f4e487b7100000000000000000000000000000000000000000000000000000000600052603260045260246000fd5b1a60f81b8282815181106126f4577f4e487b7100000000000000000000000000000000000000000000000000000000600052603260045260246000fd5b60200101907effffffffffffffffffffffffffffffffffffffffffffffffffffffffffffff1916908160001a905350600485901c9450806127349061445b565b9050612652565b506000841461277f576040517f08c379a000000000000000000000000000000000000000000000000000000000815260040161277690613e71565b60405180910390fd5b8091505092915050565b61279281612bc4565b6000600a600083815260200190815260200160002080546127b290614485565b9050146127d957600a600082815260200190815260200160002060006127d8919061334b565b5b50565b6127e68383612ce1565b6127f36000848484612837565b612832576040517f08c379a000000000000000000000000000000000000000000000000000000000815260040161282990613ed1565b60405180910390fd5b505050565b60006128588473ffffffffffffffffffffffffffffffffffffffff16612ebb565b156129c1578373ffffffffffffffffffffffffffffffffffffffff1663150b7a026128816118b1565b8786866040518563ffffffff1660e01b81526004016128a39493929190613dcd565b602060405180830381600087803b1580156128bd57600080fd5b505af19250505080156128ee57506040513d601f19601f820116820180604052508101906128eb91906137f3565b60015b612971573d806000811461291e576040519150601f19603f3d011682016040523d82523d6000602084013e612923565b606091505b50600081511415612969576040517f08c379a000000000000000000000000000000000000000000000000000000000815260040161296090613ed1565b60405180910390fd5b805181602001fd5b63150b7a0260e01b7bffffffffffffffffffffffffffffffffffffffffffffffffffffffff1916817bffffffffffffffffffffffffffffffffffffffffffffffffffffffff1916149150506129c6565b600190505b949350505050565b60007f80ac58cd000000000000000000000000000000000000000000000000000000007bffffffffffffffffffffffffffffffffffffffffffffffffffffffff1916827bffffffffffffffffffffffffffffffffffffffffffffffffffffffff19161480612a9957507f5b5e139f000000000000000000000000000000000000000000000000000000007bffffffffffffffffffffffffffffffffffffffffffffffffffffffff1916827bffffffffffffffffffffffffffffffffffffffffffffffffffffffff1916145b80612aa95750612aa882612ede565b5b9050919050565b612abb838383612f48565b600073ffffffffffffffffffffffffffffffffffffffff168373ffffffffffffffffffffffffffffffffffffffff161415612afe57612af981612f4d565b612b3d565b8173ffffffffffffffffffffffffffffffffffffffff168373ffffffffffffffffffffffffffffffffffffffff1614612b3c57612b3b8382612f96565b5b5b600073ffffffffffffffffffffffffffffffffffffffff168273ffffffffffffffffffffffffffffffffffffffff161415612b8057612b7b81613103565b612bbf565b8273ffffffffffffffffffffffffffffffffffffffff168273ffffffffffffffffffffffffffffffffffffffff1614612bbe57612bbd8282613246565b5b5b505050565b6000612bcf8261113d565b9050612bdd81600084612432565b612be86000836118b9565b6001600360008373ffffffffffffffffffffffffffffffffffffffff1673ffffffffffffffffffffffffffffffffffffffff1681526020019081526020016000206000828254612c389190614367565b925050819055506002600083815260200190815260200160002060006101000a81549073ffffffffffffffffffffffffffffffffffffffff021916905581600073ffffffffffffffffffffffffffffffffffffffff168273ffffffffffffffffffffffffffffffffffffffff167fddf252ad1be2c89b69c2b068fc378daa952ba7f163c4a11628f55a4df523b3ef60405160405180910390a4612cdd8160008461248a565b5050565b600073ffffffffffffffffffffffffffffffffffffffff168273ffffffffffffffffffffffffffffffffffffffff161415612d51576040517f08c379a0000000000000000000000000000000000000000000000000000000008152600401612d4890614051565b60405180910390fd5b612d5a81611845565b15612d9a576040517f08c379a0000000000000000000000000000000000000000000000000000000008152600401612d9190613f11565b60405180910390fd5b612da660008383612432565b6001600360008473ffffffffffffffffffffffffffffffffffffffff1673ffffffffffffffffffffffffffffffffffffffff1681526020019081526020016000206000828254612df691906142b7565b92505081905550816002600083815260200190815260200160002060006101000a81548173ffffffffffffffffffffffffffffffffffffffff021916908373ffffffffffffffffffffffffffffffffffffffff160217905550808273ffffffffffffffffffffffffffffffffffffffff16600073ffffffffffffffffffffffffffffffffffffffff167fddf252ad1be2c89b69c2b068fc378daa952ba7f163c4a11628f55a4df523b3ef60405160405180910390a4612eb76000838361248a565b5050565b6000808273ffffffffffffffffffffffffffffffffffffffff163b119050919050565b60007f01ffc9a7000000000000000000000000000000000000000000000000000000007bffffffffffffffffffffffffffffffffffffffffffffffffffffffff1916827bffffffffffffffffffffffffffffffffffffffffffffffffffffffff1916149050919050565b505050565b6008805490506009600083815260200190815260200160002081905550600881908060018154018082558091505060019003906000526020600020016000909190919091505550565b60006001612fa38461127d565b612fad9190614367565b9050600060076000848152602001908152602001600020549050818114613092576000600660008673ffffffffffffffffffffffffffffffffffffffff1673ffffffffffffffffffffffffffffffffffffffff168152602001908152602001600020600084815260200190815260200160002054905080600660008773ffffffffffffffffffffffffffffffffffffffff1673ffffffffffffffffffffffffffffffffffffffff168152602001908152602001600020600084815260200190815260200160002081905550816007600083815260200190815260200160002081905550505b6007600084815260200190815260200160002060009055600660008573ffffffffffffffffffffffffffffffffffffffff1673ffffffffffffffffffffffffffffffffffffffff16815260200190815260200160002060008381526020019081526020016000206000905550505050565b600060016008805490506131179190614367565b905060006009600084815260200190815260200160002054905060006008838154811061316d577f4e487b7100000000000000000000000000000000000000000000000000000000600052603260045260246000fd5b9060005260206000200154905080600883815481106131b5577f4e487b7100000000000000000000000000000000000000000000000000000000600052603260045260246000fd5b90600052602060002001819055508160096000838152602001908152602001600020819055506009600085815260200190815260200160002060009055600880548061322a577f4e487b7100000000000000000000000000000000000000000000000000000000600052603160045260246000fd5b6001900381819060005260206000200160009055905550505050565b60006132518361127d565b905081600660008573ffffffffffffffffffffffffffffffffffffffff1673ffffffffffffffffffffffffffffffffffffffff168152602001908152602001600020600083815260200190815260200160002081905550806007600084815260200190815260200160002081905550505050565b8280546132d190614485565b90600052602060002090601f0160209004810192826132f3576000855561333a565b82601f1061330c57805160ff191683800117855561333a565b8280016001018555821561333a579182015b8281111561333957825182559160200191906001019061331e565b5b509050613347919061338b565b5090565b50805461335790614485565b6000825580601f106133695750613388565b601f016020900490600052602060002090810190613387919061338b565b5b50565b5b808211156133a457600081600090555060010161338c565b5090565b60006133bb6133b6846141d1565b6141ac565b9050808382526020820190508260005b858110156133fb57813585016133e1888261353e565b8452602084019350602083019250506001810190506133cb565b5050509392505050565b6000613418613413846141fd565b6141ac565b90508281526020810184848401111561343057600080fd5b61343b848285614419565b509392505050565b60006134566134518461422e565b6141ac565b90508281526020810184848401111561346e57600080fd5b613479848285614419565b509392505050565b60008135905061349081614ca8565b92915050565b600082601f8301126134a757600080fd5b81356134b78482602086016133a8565b91505092915050565b6000813590506134cf81614cbf565b92915050565b6000813590506134e481614cd6565b92915050565b6000813590506134f981614ced565b92915050565b60008151905061350e81614ced565b92915050565b600082601f83011261352557600080fd5b8135613535848260208601613405565b91505092915050565b600082601f83011261354f57600080fd5b813561355f848260208601613443565b91505092915050565b60008135905061357781614d04565b92915050565b60006020828403121561358f57600080fd5b600061359d84828501613481565b91505092915050565b600080604083850312156135b957600080fd5b60006135c785828601613481565b92505060206135d885828601613481565b9150509250929050565b6000806000606084860312156135f757600080fd5b600061360586828701613481565b935050602061361686828701613481565b925050604061362786828701613568565b9150509250925092565b6000806000806080858703121561364757600080fd5b600061365587828801613481565b945050602061366687828801613481565b935050604061367787828801613568565b925050606085013567ffffffffffffffff81111561369457600080fd5b6136a087828801613514565b91505092959194509250565b600080604083850312156136bf57600080fd5b60006136cd85828601613481565b92505060206136de858286016134c0565b9150509250929050565b600080604083850312156136fb57600080fd5b600061370985828601613481565b925050602061371a85828601613568565b9150509250929050565b60006020828403121561373657600080fd5b600082013567ffffffffffffffff81111561375057600080fd5b61375c84828501613496565b91505092915050565b60006020828403121561377757600080fd5b6000613785848285016134d5565b91505092915050565b600080604083850312156137a157600080fd5b60006137af858286016134d5565b92505060206137c085828601613481565b9150509250929050565b6000602082840312156137dc57600080fd5b60006137ea848285016134ea565b91505092915050565b60006020828403121561380557600080fd5b6000613813848285016134ff565b91505092915050565b60006020828403121561382e57600080fd5b600061383c84828501613568565b91505092915050565b61384e8161439b565b82525050565b61385d816143ad565b82525050565b61386c816143b9565b82525050565b600061387d82614274565b613887818561428a565b9350613897818560208601614428565b6138a0816145be565b840191505092915050565b60006138b68261427f565b6138c0818561429b565b93506138d0818560208601614428565b6138d9816145be565b840191505092915050565b60006138ef8261427f565b6138f981856142ac565b9350613909818560208601614428565b80840191505092915050565b6000815461392281614485565b61392c81866142ac565b9450600182166000811461394757600181146139585761398b565b60ff1983168652818601935061398b565b6139618561425f565b60005b8381101561398357815481890152600182019150602081019050613964565b838801955050505b50505092915050565b60006139a160208361429b565b91506139ac826145cf565b602082019050919050565b60006139c460148361429b565b91506139cf826145f8565b602082019050919050565b60006139e7602b8361429b565b91506139f282614621565b604082019050919050565b6000613a0a60328361429b565b9150613a1582614670565b604082019050919050565b6000613a2d60258361429b565b9150613a38826146bf565b604082019050919050565b6000613a50601c8361429b565b9150613a5b8261470e565b602082019050919050565b6000613a7360238361429b565b9150613a7e82614737565b604082019050919050565b6000613a9660148361429b565b9150613aa182614786565b602082019050919050565b6000613ab960248361429b565b9150613ac4826147af565b604082019050919050565b6000613adc60198361429b565b9150613ae7826147fe565b602082019050919050565b6000613aff602c8361429b565b9150613b0a82614827565b604082019050919050565b6000613b2260108361429b565b9150613b2d82614876565b602082019050919050565b6000613b4560388361429b565b9150613b508261489f565b604082019050919050565b6000613b68602a8361429b565b9150613b73826148ee565b604082019050919050565b6000613b8b60298361429b565b9150613b968261493d565b604082019050919050565b6000613bae60208361429b565b9150613bb98261498c565b602082019050919050565b6000613bd1602c8361429b565b9150613bdc826149b5565b604082019050919050565b6000613bf4602f8361429b565b9150613bff82614a04565b604082019050919050565b6000613c1760218361429b565b9150613c2282614a53565b604082019050919050565b6000613c3a60318361429b565b9150613c4582614aa2565b604082019050919050565b6000613c5d602c8361429b565b9150613c6882614af1565b604082019050919050565b6000613c806017836142ac565b9150613c8b82614b40565b601782019050919050565b6000613ca360248361429b565b9150613cae82614b69565b604082019050919050565b6000613cc6601c8361429b565b9150613cd182614bb8565b602082019050919050565b6000613ce960308361429b565b9150613cf482614be1565b604082019050919050565b6000613d0c6011836142ac565b9150613d1782614c30565b601182019050919050565b6000613d2f602f8361429b565b9150613d3a82614c59565b604082019050919050565b613d4e8161440f565b82525050565b6000613d6082856138e4565b9150613d6c8284613915565b91508190509392505050565b6000613d8382613c73565b9150613d8f82856138e4565b9150613d9a82613cff565b9150613da682846138e4565b91508190509392505050565b6000602082019050613dc76000830184613845565b92915050565b6000608082019050613de26000830187613845565b613def6020830186613845565b613dfc6040830185613d45565b8181036060830152613e0e8184613872565b905095945050505050565b6000602082019050613e2e6000830184613854565b92915050565b6000602082019050613e496000830184613863565b92915050565b60006020820190508181036000830152613e6981846138ab565b905092915050565b60006020820190508181036000830152613e8a81613994565b9050919050565b60006020820190508181036000830152613eaa816139b7565b9050919050565b60006020820190508181036000830152613eca816139da565b9050919050565b60006020820190508181036000830152613eea816139fd565b9050919050565b60006020820190508181036000830152613f0a81613a20565b9050919050565b60006020820190508181036000830152613f2a81613a43565b9050919050565b60006020820190508181036000830152613f4a81613a66565b9050919050565b60006020820190508181036000830152613f6a81613a89565b9050919050565b60006020820190508181036000830152613f8a81613aac565b9050919050565b60006020820190508181036000830152613faa81613acf565b9050919050565b60006020820190508181036000830152613fca81613af2565b9050919050565b60006020820190508181036000830152613fea81613b15565b9050919050565b6000602082019050818103600083015261400a81613b38565b9050919050565b6000602082019050818103600083015261402a81613b5b565b9050919050565b6000602082019050818103600083015261404a81613b7e565b9050919050565b6000602082019050818103600083015261406a81613ba1565b9050919050565b6000602082019050818103600083015261408a81613bc4565b9050919050565b600060208201905081810360008301526140aa81613be7565b9050919050565b600060208201905081810360008301526140ca81613c0a565b9050919050565b600060208201905081810360008301526140ea81613c2d565b9050919050565b6000602082019050818103600083015261410a81613c50565b9050919050565b6000602082019050818103600083015261412a81613c96565b9050919050565b6000602082019050818103600083015261414a81613cb9565b9050919050565b6000602082019050818103600083015261416a81613cdc565b9050919050565b6000602082019050818103600083015261418a81613d22565b9050919050565b60006020820190506141a66000830184613d45565b92915050565b60006141b66141c7565b90506141c282826144b7565b919050565b6000604051905090565b600067ffffffffffffffff8211156141ec576141eb61458f565b5b602082029050602081019050919050565b600067ffffffffffffffff8211156142185761421761458f565b5b614221826145be565b9050602081019050919050565b600067ffffffffffffffff8211156142495761424861458f565b5b614252826145be565b9050602081019050919050565b60008190508160005260206000209050919050565b600081519050919050565b600081519050919050565b600082825260208201905092915050565b600082825260208201905092915050565b600081905092915050565b60006142c28261440f565b91506142cd8361440f565b9250827fffffffffffffffffffffffffffffffffffffffffffffffffffffffffffffffff0382111561430257614301614531565b5b828201905092915050565b60006143188261440f565b91506143238361440f565b9250817fffffffffffffffffffffffffffffffffffffffffffffffffffffffffffffffff048311821515161561435c5761435b614531565b5b828202905092915050565b60006143728261440f565b915061437d8361440f565b9250828210156143905761438f614531565b5b828203905092915050565b60006143a6826143ef565b9050919050565b60008115159050919050565b6000819050919050565b60007fffffffff0000000000000000000000000000000000000000000000000000000082169050919050565b600073ffffffffffffffffffffffffffffffffffffffff82169050919050565b6000819050919050565b82818337600083830152505050565b60005b8381101561444657808201518184015260208101905061442b565b83811115614455576000848401525b50505050565b60006144668261440f565b9150600082141561447a57614479614531565b5b600182039050919050565b6000600282049050600182168061449d57607f821691505b602082108114156144b1576144b0614560565b5b50919050565b6144c0826145be565b810181811067ffffffffffffffff821117156144df576144de61458f565b5b80604052505050565b60006144f38261440f565b91507fffffffffffffffffffffffffffffffffffffffffffffffffffffffffffffffff82141561452657614525614531565b5b600182019050919050565b7f4e487b7100000000000000000000000000000000000000000000000000000000600052601160045260246000fd5b7f4e487b7100000000000000000000000000000000000000000000000000000000600052602260045260246000fd5b7f4e487b7100000000000000000000000000000000000000000000000000000000600052604160045260246000fd5b6000601f19601f8301169050919050565b7f537472696e67733a20686578206c656e67746820696e73756666696369656e74600082015250565b7f5061757361626c653a206e6f7420706175736564000000000000000000000000600082015250565b7f455243373231456e756d657261626c653a206f776e657220696e646578206f7560008201527f74206f6620626f756e6473000000000000000000000000000000000000000000602082015250565b7f4552433732313a207472616e7366657220746f206e6f6e20455243373231526560008201527f63656976657220696d706c656d656e7465720000000000000000000000000000602082015250565b7f4552433732313a207472616e736665722066726f6d20696e636f72726563742060008201527f6f776e6572000000000000000000000000000000000000000000000000000000602082015250565b7f4552433732313a20746f6b656e20616c7265616479206d696e74656400000000600082015250565b7f6f6e6c792077686974656c6973742063616e206d696e74206265666f7265207360008201527f616c650000000000000000000000000000000000000000000000000000000000602082015250565b7f6275726e206f6e6c79206f776e20746f6b656e73000000000000000000000000600082015250565b7f4552433732313a207472616e7366657220746f20746865207a65726f2061646460008201527f7265737300000000000000000000000000000000000000000000000000000000602082015250565b7f4552433732313a20617070726f766520746f2063616c6c657200000000000000600082015250565b7f4552433732313a206f70657261746f7220717565727920666f72206e6f6e657860008201527f697374656e7420746f6b656e0000000000000000000000000000000000000000602082015250565b7f5061757361626c653a2070617573656400000000000000000000000000000000600082015250565b7f4552433732313a20617070726f76652063616c6c6572206973206e6f74206f7760008201527f6e6572206e6f7220617070726f76656420666f7220616c6c0000000000000000602082015250565b7f4552433732313a2062616c616e636520717565727920666f7220746865207a6560008201527f726f206164647265737300000000000000000000000000000000000000000000602082015250565b7f4552433732313a206f776e657220717565727920666f72206e6f6e657869737460008201527f656e7420746f6b656e0000000000000000000000000000000000000000000000602082015250565b7f4552433732313a206d696e7420746f20746865207a65726f2061646472657373600082015250565b7f4552433732313a20617070726f76656420717565727920666f72206e6f6e657860008201527f697374656e7420746f6b656e0000000000000000000000000000000000000000602082015250565b7f4552433732314d657461646174613a2055524920717565727920666f72206e6f60008201527f6e6578697374656e7420746f6b656e0000000000000000000000000000000000602082015250565b7f4552433732313a20617070726f76616c20746f2063757272656e74206f776e6560008201527f7200000000000000000000000000000000000000000000000000000000000000602082015250565b7f4552433732313a207472616e736665722063616c6c6572206973206e6f74206f60008201527f776e6572206e6f7220617070726f766564000000000000000000000000000000602082015250565b7f455243373231456e756d657261626c653a20676c6f62616c20696e646578206f60008201527f7574206f6620626f756e64730000000000000000000000000000000000000000602082015250565b7f416363657373436f6e74726f6c3a206163636f756e7420000000000000000000600082015250565b7f636f7374206f6620302e303120657468657220666f722020746f6b656e206d6960008201527f6e74656400000000000000000000000000000000000000000000000000000000602082015250565b7f6d696e7420757020746f2074686520616c6c6f776564206c696d697400000000600082015250565b7f4552433732314275726e61626c653a2063616c6c6572206973206e6f74206f7760008201527f6e6572206e6f7220617070726f76656400000000000000000000000000000000602082015250565b7f206973206d697373696e6720726f6c6520000000000000000000000000000000600082015250565b7f416363657373436f6e74726f6c3a2063616e206f6e6c792072656e6f756e636560008201527f20726f6c657320666f722073656c660000000000000000000000000000000000602082015250565b614cb18161439b565b8114614cbc57600080fd5b50565b614cc8816143ad565b8114614cd357600080fd5b50565b614cdf816143b9565b8114614cea57600080fd5b50565b614cf6816143c3565b8114614d0157600080fd5b50565b614d0d8161440f565b8114614d1857600080fd5b5056fe68747470733a2f2f676174657761792e70696e6174612e636c6f75642f697066732f516d5339414b4d3973794d6e3475466d5554517753745a6733537a62583468754c5164473444634443386f627477a2646970667358221220f6d34b50b7bfd82ea8403277685a6b7dad6d9ec7f7cf5fa16728dc071c8c0e1664736f6c63430008010033",
  "immutableReferences": {},
  "source": "// SPDX-License-Identifier: MIT\npragma solidity ^0.8.1;\n\nimport \"@openzeppelin/contracts/token/ERC721/ERC721.sol\";\nimport \"@openzeppelin/contracts/token/ERC721/extensions/ERC721Enumerable.sol\";\nimport \"@openzeppelin/contracts/token/ERC721/extensions/ERC721URIStorage.sol\";\nimport \"@openzeppelin/contracts/security/Pausable.sol\";\nimport \"@openzeppelin/contracts/access/AccessControl.sol\";\nimport \"@openzeppelin/contracts/token/ERC721/extensions/ERC721Burnable.sol\";\nimport \"@openzeppelin/contracts/utils/Counters.sol\";\n\ncontract Token721 is ERC721, ERC721Enumerable, ERC721URIStorage, Pausable, AccessControl, ERC721Burnable {\n    using Counters for Counters.Counter;\n\n    Counters.Counter private _tokenIdCounter;\n    bytes32 public constant PAUSER_ROLE = keccak256(\"PAUSER_ROLE\");\n    bytes32 public constant MINTER_ROLE = keccak256(\"MINTER_ROLE\");\n    bytes32 public constant WHITE_LIST_ROLE = keccak256(\"WHITE_LIST_ROLE\"); \n    bool public mintState = false; \n    bool public revealed = false; \n    uint public constant MAX_MINT_SUPPLY = 4;\n    string public baseURI;\n    mapping(uint256 => string) private _hashIPFS;\n    mapping(uint256 => address) private _ownBurnableToken;\n\n\n    /**\n     * @dev set roles and routing \n     */\n    constructor() ERC721(\"Token721\", \"FJA\") {\n        _grantRole(DEFAULT_ADMIN_ROLE, msg.sender);\n        _grantRole(PAUSER_ROLE, msg.sender);\n        _grantRole(MINTER_ROLE, msg.sender);\n        baseURI = \"https://ipfs.io/ipfs/\";\n    }\n\n\n    /**\n     * @dev add accounts to whitelist\n     */\n    function addWhiteList(address _vip) public onlyRole(DEFAULT_ADMIN_ROLE){\n        \n        _grantRole(WHITE_LIST_ROLE, _vip);\n    \n    }\n\n    /**\n     * @dev disclose NFT\n     */\n    function revelateNFT() public onlyRole(DEFAULT_ADMIN_ROLE){\n        \n        revealed = true;\n    \n    }\n\n\n     /**\n     * @dev start minting \n     */\n    function startMint() public onlyRole(DEFAULT_ADMIN_ROLE){\n        \n        mintState = true;\n    \n    }\n    \n\n    /**\n     * @dev function to return base URL \n     */\n    function _baseURI() internal view virtual override returns (string memory) {\n        return baseURI;\n    }\n    \n\n\n    /**\n     * @dev pause contract \n     */\n    function pause() public onlyRole(PAUSER_ROLE) {\n        _pause();\n    }\n    \n\n    \n    /**\n     * @dev restart contract \n     */\n    function unpause() public onlyRole(PAUSER_ROLE) {\n        _unpause();\n    }\n\n\n\n    function burn_(uint256 tokenId) public{\n        \n        _burn(tokenId);\n    }\n\n    /**\n     * @dev burn token \n     */\n    function _burn(uint256 tokenId) internal override(ERC721, ERC721URIStorage) {\n        require(!paused());\n        require(_ownBurnableToken[tokenId] == msg.sender,\"burn only own tokens\");\n        super._burn(tokenId);\n    }\n    \n    \n    \n\n    /**\n    *@dev mint token\n    1)must not be paused \n    2)there must be tokens left to be minted\n    3)only whitelist may mint before sale \n    4)verify that the cost per token minted is the same as the cost per token minted.\n    5)join the IDs with the paths of the images and finish coining.\n     */\n    function mint(string[] memory _hashes) public payable onlyRole(MINTER_ROLE){\n        require(!paused());\n        require(_tokenIdCounter.current() < MAX_MINT_SUPPLY && _hashes.length <= (MAX_MINT_SUPPLY - _tokenIdCounter.current()),\"mint up to the allowed limit\");\n        require(mintState == true || hasRole(WHITE_LIST_ROLE,msg.sender),\"only whitelist can mint before sale\");\n        require(msg.value >= 0.01 ether,\"cost of 0.01 ether for  token minted\");\n        uint256 supply = totalSupply();\n\n        for (uint256 i = 0; i < _hashes.length; i++){\n            _safeMint(msg.sender, supply + 1);\n            _hashIPFS[supply + 1] = _hashes[i];\n            _ownBurnableToken[supply + 1] = msg.sender; \n            _tokenIdCounter.increment();\n        }\n\n\n    }\n\n\n    /**\n    * \n    @dev the routes are maintained for the IPF depending on whether the tokens are hidden or not. \n    */\n\n    function tokenURI(uint256 tokenId)\n        public\n        view\n        virtual\n        override(ERC721, ERC721URIStorage)\n        returns (string memory)\n    {\n        require(\n            _exists(tokenId),\n            \"ERC721Metadata: URI query for nonexistent token\"\n        );\n\n        string memory currentBaseURI = _baseURI();\n\n            if(revealed == false){\n               return \"https://gateway.pinata.cloud/ipfs/QmS9AKM9syMn4uFmUTQwStZg3SzbX4huLQdG4DcDC8obtw\";\n            }\n            return\n            (bytes(currentBaseURI).length > 0 &&\n                bytes(_hashIPFS[tokenId]).length > 0)\n            ? string(abi.encodePacked(currentBaseURI, _hashIPFS[tokenId]))\n            : \"\";\n            \n        \n    }\n\n\n\n    function _beforeTokenTransfer(address from, address to, uint256 tokenId)\n        internal\n        whenNotPaused\n        override(ERC721, ERC721Enumerable)\n    {\n        super._beforeTokenTransfer(from, to, tokenId);\n    }\n    \n    \n    function supportsInterface(bytes4 interfaceId)\n        public\n        view\n        override(ERC721, ERC721Enumerable, AccessControl)\n        returns (bool)\n    {\n        return super.supportsInterface(interfaceId);\n    }\n    \n}",
  "sourcePath": "/home/alvaradof/cursoSolidity/NFT/contracts/Token721.sol",
  "compiler": {
    "name": "solc",
    "version": "0.8.1+commit.df193b15.Emscripten.clang"
  },
  "schemaVersion": "3.4.4",
  "updatedAt": "2022-02-27T03:21:04.723Z",
  "networkType": "ethereum",
  "devdoc": {
    "kind": "dev",
    "methods": {
      "addWhiteList(address)": {
        "details": "add accounts to whitelist"
      },
      "approve(address,uint256)": {
        "details": "See {IERC721-approve}."
      },
      "balanceOf(address)": {
        "details": "See {IERC721-balanceOf}."
      },
      "burn(uint256)": {
        "details": "Burns `tokenId`. See {ERC721-_burn}. Requirements: - The caller must own `tokenId` or be an approved operator."
      },
      "constructor": {
        "details": "set roles and routing "
      },
      "getApproved(uint256)": {
        "details": "See {IERC721-getApproved}."
      },
      "getRoleAdmin(bytes32)": {
        "details": "Returns the admin role that controls `role`. See {grantRole} and {revokeRole}. To change a role's admin, use {_setRoleAdmin}."
      },
      "grantRole(bytes32,address)": {
        "details": "Grants `role` to `account`. If `account` had not been already granted `role`, emits a {RoleGranted} event. Requirements: - the caller must have ``role``'s admin role."
      },
      "hasRole(bytes32,address)": {
        "details": "Returns `true` if `account` has been granted `role`."
      },
      "isApprovedForAll(address,address)": {
        "details": "See {IERC721-isApprovedForAll}."
      },
      "mint(string[])": {
        "details": "mint token 1)must not be paused  2)there must be tokens left to be minted 3)only whitelist may mint before sale  4)verify that the cost per token minted is the same as the cost per token minted. 5)join the IDs with the paths of the images and finish coining."
      },
      "name()": {
        "details": "See {IERC721Metadata-name}."
      },
      "ownerOf(uint256)": {
        "details": "See {IERC721-ownerOf}."
      },
      "pause()": {
        "details": "pause contract "
      },
      "paused()": {
        "details": "Returns true if the contract is paused, and false otherwise."
      },
      "renounceRole(bytes32,address)": {
        "details": "Revokes `role` from the calling account. Roles are often managed via {grantRole} and {revokeRole}: this function's purpose is to provide a mechanism for accounts to lose their privileges if they are compromised (such as when a trusted device is misplaced). If the calling account had been revoked `role`, emits a {RoleRevoked} event. Requirements: - the caller must be `account`."
      },
      "revelateNFT()": {
        "details": "disclose NFT"
      },
      "revokeRole(bytes32,address)": {
        "details": "Revokes `role` from `account`. If `account` had been granted `role`, emits a {RoleRevoked} event. Requirements: - the caller must have ``role``'s admin role."
      },
      "safeTransferFrom(address,address,uint256)": {
        "details": "See {IERC721-safeTransferFrom}."
      },
      "safeTransferFrom(address,address,uint256,bytes)": {
        "details": "See {IERC721-safeTransferFrom}."
      },
      "setApprovalForAll(address,bool)": {
        "details": "See {IERC721-setApprovalForAll}."
      },
      "startMint()": {
        "details": "start minting "
      },
      "symbol()": {
        "details": "See {IERC721Metadata-symbol}."
      },
      "tokenByIndex(uint256)": {
        "details": "See {IERC721Enumerable-tokenByIndex}."
      },
      "tokenOfOwnerByIndex(address,uint256)": {
        "details": "See {IERC721Enumerable-tokenOfOwnerByIndex}."
      },
      "tokenURI(uint256)": {
        "details": "the routes are maintained for the IPF depending on whether the tokens are hidden or not. "
      },
      "totalSupply()": {
        "details": "See {IERC721Enumerable-totalSupply}."
      },
      "transferFrom(address,address,uint256)": {
        "details": "See {IERC721-transferFrom}."
      },
      "unpause()": {
        "details": "restart contract "
      }
    },
    "version": 1
  },
  "userdoc": {
    "kind": "user",
    "methods": {},
    "version": 1
  }
}